:020000040800F2
:10000000201200209D0100082B220008C51F0008B7
:100010002922000805050008813B000800000000B7
:10002000000000000000000000000000CD230008D8
:100030003506000800000000CB230008CF2300088D
:10004000B7010008B7010008B7010008B7010008B0
:10005000B7010008B7010008B7010008B7010008A0
:10006000B7010008B7010008B7010008B701000890
:10007000B7010008B7010008B7010008B701000880
:10008000B7010008B7010008B7010008B701000870
:10009000B7010008B7010008B7010008B701000860
:1000A000B7010008B7010008B7010008B701000850
:1000B000B7010008B7010008B7010008B701000840
:1000C000B7010008B7010008B7010008B701000830
:1000D000B7010008B7010008B7010008B701000820
:1000E000B7010008B7010008B7010008B701000810
:1000F000B7010008B7010008B7010008B701000800
:10010000B7010008B7010008B7010008B7010008EF
:10011000B7010008B7010008B7010008B7010008DF
:1001200079050008B701000885050008B701000837
:10013000B7010008B7010008B7010008B7010008BF
:10014000B7010008B7010008B70100082D22000818
:10015000B7010008B7010008B7010008B70100089F
:10016000B7010008B7010008B7010008B70100088F
:10017000B7010008B7010008B7010008000000003F
:10018000B7010008B7010008DFF80CD000F0A2F8B2
:1001900000480047E13F0008201200200648804741
:1001A00006480047FEE7FEE7FEE7FEE7FEE7FEE75C
:1001B000FEE7FEE7FEE7FEE75D2400088901000890
:1001C0002DE9F05F0546002092469B46884606468C
:1001D000814640241BE0284641464746224600F01F
:1001E00069F853465A46C01A914110D31146184631
:1001F000224600F050F82D1A67EB01084F462246C0
:100200000120002100F047F817EB00094E41201EA5
:10021000A4F10104DFDC484631462A464346BDE8E6
:10022000F09F40EA01039B0703D009E008C9121FB1
:1002300008C0042AFAD203E011F8013B00F8013BA0
:10024000521EF9D27047D2B201E000F8012B491ECC
:10025000FBD270470022F6E710B513460A46044663
:100260001946FFF7F0FF204610BD30B50B4601469A
:1002700000202022012409E021FA02F59D4205D345
:1002800003FA02F5491B04FA02F52844151EA2F1EF
:100290000102F1DC30BD202A04DB203A00FA02F131
:1002A000002070479140C2F1200320FA03F3194364
:1002B00090407047202A04DB203A21FA02F0002106
:1002C000704721FA02F3D040C2F120029140084366
:1002D00019467047064C074D06E0E06840F0010300
:1002E00094E8070098471034AC42F6D3FFF750FF6C
:1002F0006C4100088C41000870B58C1810F8015B47
:1003000015F0070301D110F8013B2A1106D110F8AE
:10031000012B03E010F8016B01F8016B5B1EF9D1B2
:100320002B0705D40023521E0DD401F8013BFAE738
:1003300010F8013BCB1A921C03E013F8015B01F8A3
:10034000015B521EF9D5A142D8D3002070BD10B573
:100350000146806B026C12F0500F05D0026CD20681
:1003600026D500F011FA10BD016C41F40071016452
:1003700001688A6812F0405F17D1027EAAB9CA6A82
:1003800012F4700F02D08A6852050ED44A6822F027
:1003900020024A60016C21F480710164016CC9047F
:1003A00003D4016C41F00101016400F0EBF910BDD0
:1003B000806BC26CBDE810400846104710B5806BDA
:1003C00040210164416C41F00401416400F0DCF91A
:1003D00010BD10B5806B00F0D6F910BD464910B5C0
:1003E0004A6822F440324A604A6843681A434A60C5
:1003F00001684A6822F480724A6001684A680369A9
:1004000042EA03224A6001684A6822F040724A6068
:1004100001684A6883681A434A6001688A6822F45E
:1004200000628A6001688A68C3681A438A60816AC8
:100430006FF07062D14201688A6822F070628A604F
:1004400001688A680CD0836A1A438A6001688A68E6
:1004500022F040528A6001688A68C36A1A4301E048
:1004600022F040528A6001688A6822F002028A60A3
:1004700001688A68037E42EA43028A6090F820108D
:10048000002901684A680FD042F400624A6001689E
:100490004A6822F460424A6001684A68174C436A1D
:1004A00004EB43331A4301E022F400624A6001681E
:1004B000CA6A22F47002CA620168CA6A838B104C4D
:1004C00004EB03531A43CA6201688A6822F400727B
:1004D0008A6001688A6890F8303042EA43228A6074
:1004E00001688A6822F480628A6001688A684069CB
:1004F00042EA8020886010BD0023014000E0FFFF39
:100500000000F0FFFEE70020704700207047000069
:1005100010B500220549064802F0BEF80349044818
:10052000403902F0B3F8002010BD0000E00B0020BD
:10053000FC02002010B50146034802F0A7F802486B
:1005400002F088F8002010BDFC020020094A10B516
:10055000D2F89022D2F814210AB1012010BD0A4627
:100560000146044802F098F8BDE81040014802F046
:10057000F1B80000FC020020014800F0FFBA0000C2
:100580003C020020014800F0F9BA00009C02002063
:1005900001681823CAB2103AB2FBF3F2054B6FF3AD
:1005A0000901032A9B5CC36500D9091D81650846C2
:1005B000704700005441000810B5014600208B69C7
:1005C0008A6A4FF0C07453B1B3F5005F15D072B1B1
:1005D000012A0CD0022A0AD0032A09D104E01AB158
:1005E000012A06D0022A03D1C96AC90100D5012017
:1005F00010BDC96AA142FAD010BD002AF7D0012A65
:10060000F2D0022AF3D0032AF3D010BD30B504682B
:10061000256825F480252560046863608368402B85
:10062000036803D099600068C26030BD9A600068BA
:10063000C16030BD7047704778B50024009490F8D1
:100640003C20012A19D0012280F83C200A680723A7
:100650000568092A13D9EE680A3A02EB4202934070
:100660009E43EE600B788A680A3B03EB43039A4093
:100670000368DD682A43DA6010E0022078BD2E6945
:1006800002EB420293409E432E610B788A6803EB93
:1006900043039A4003681D692A431A614A681F236D
:1006A000072A13D205686E6B521E02EB820293403A
:1006B0009E436E630B790A885B1E92B203EB830341
:1006C0009A4003685D6B2A435A6327E005680D2A48
:1006D00012D22E6BD21F02EB820293409E432E63F6
:1006E0000B790A88DB1F92B203EB83039A400368FD
:1006F0001D6B2A431A6311E0EE6A0D3A02EB820287
:1007000093409E43EE620B790A880D3B92B203EB55
:1007100083039A400368DD6A2A43DA62164B056850
:10072000144A9D4206D10D68122D03D1556845F437
:100730008005556005689D4218D10B68102B01D0CB
:10074000112B13D1536843F4000353600968102937
:100750000CD10A490A4A0968B1FBF2F101EB8101A7
:10076000490000E0491E00910029FBD180F83C407F
:10077000002078BD002301400020014080000020BF
:1007800040420F0070477047704770B504004FF04B
:10079000000503D0206C002610B107E0012070BDD9
:1007A000204600F01DF8666484F83C60206CC006AA
:1007B00010D4206C20F4885040F0020020642046C1
:1007C000FFF70CFE6664206C20F0020040F0010090
:1007D000206400E0012584F83C60284670BD0000DC
:1007E0002DE9F04F87B0064614216846FFF732FD29
:1007F0005448DFF84CC133680024524914380325AB
:10080000514AFF274FF480684FF480594FF4804AD3
:100810004FF4803B634545D10B6843F480730B6014
:10082000096801F480710591016841F004010160DB
:10083000016801F004010591016841F001010160C6
:10084000016801F001010591016841F002010160B8
:100850000068009500F002000590CDE9015469465A
:10086000104600F013FB0097CDE901546946374864
:1008700000F00CFB0095CDE901546946344800F0C6
:1008800005FB354D3348E5E80204334810C5A5E8BB
:10089000100765E8074B6C624BE0B563AE6307B0C9
:1008A000BDE8F08FDFF8B4C06345F8D10B6843F4BE
:1008B00000730B60096801F400710591016841F053
:1008C00004010160016801F004010591016841F033
:1008D00001010160016801F001010591016841F029
:1008E000020101600068009500F002000590CDE96A
:1008F00001546946104600F0C9FA0097CDE9015449
:100900006946124800F0C2FA0095CDE901546946E3
:100910000F4800F0BBFA0F48114D303001C54FF0C1
:100920000070E5E802040E48A5E8100765E8074BEB
:100930006C6200F0F3F90028AFD0FFF77CFEACE763
:1009400000200140443802400008024000000240FC
:1009500000040240106402403C02002000210140DB
:100960009C020020F8B50E4600210446009190F844
:100970003C00012807D0012084F83C0020688368EF
:10098000DB0702D011E00220F8BD836843F00103C9
:1009900083603748374B0068B0FBF3F000EB400052
:1009A00000E0401E00900028FBD120688368DB0730
:1009B0005CD0236C40F20165AB4343F48073236445
:1009C0004068400505D5206C20F4005040F480506C
:1009D0002064206CC00404D5606C20F006006064C4
:1009E00000E0616484F83C10A16B2448224DC86388
:1009F000A16B23480864A16B2248C86421686FF08A
:100A0000220008602068416841F0806141602068F0
:100A1000816841F4807181602168134632464C310F
:100A2000A06B00F0E5F968681749C006206806D099
:100A300088421BD1816811F0405F13D016E08842D4
:100A4000F8D0124A904203D1D1F80423D206F1D053
:100A50000F4A90420AD1D1F8041301F01F01102966
:100A6000E8D303E0816841F0804181600020F8BD57
:100A70008000002040420F00002301404F03000887
:100A8000D3030008BD0300080020014000210140FD
:100A90000022014010B50446002094F83C100129C2
:100AA0000CD0012184F83C1021688A6822F00102F0
:100AB0008A6021688A68D20702D013E0022010BD44
:100AC000886820F480708860A06B00F00FF82168BF
:100AD0004A6822F080624A60216C21F4885141F01A
:100AE00001012164002184F83C1010BD2DE9F04182
:100AF0000446876D00F0A8FA064694F835000025F4
:100B0000022806D08020606584F834500120BDE8BA
:100B1000F0812068016821F01601016020684169B8
:100B200021F080014161206C08B9A06C20B12068DF
:100B3000016821F0080101602068016821F00101CD
:100B400001600BE000F080FA801B052806D9202008
:100B5000606504F8345F03206070D8E7206800689F
:100B6000C007EFD194F85C103F208840B86004F8CB
:100B7000345F012060700020C9E700002DE9F843D0
:100B800004464FF00009CDF8009063484FF4165129
:100B9000A56D0068B0FBF1F72E6894F85C10082092
:100BA00000FA01F131420FD021680A6852070BD5D3
:100BB0000A6822F004020A6094F85C108840A86079
:100BC000606D40F00100606594F85C104FF0010822
:100BD00008FA01F0304208D021684969090604D5B5
:100BE000A860606D40F00200606594F85C1004201D
:100BF0008840304208D021680968890704D5A86078
:100C0000606D40F00400606594F85C10102088402E
:100C1000304218D021680968090714D5A8602068F7
:100C20000168490304D50068000308D5A16C07E0FA
:100C30000168C90503D4016821F008010160216C35
:100C400009B12046884794F85C1020208840304243
:100C500031D021680968C9062DD5A86094F83500FF
:100C600005282068016806D0490347D500680003BD
:100C70001DD4616C1CE021F01601016020684169FF
:100C800021F080014161206C08B9A06C20B120687E
:100C9000016821F00801016094F85C103F20884051
:100CA000A86084F8349084F83580216D1FE0E16BF2
:100CB00009B120468847606D00282BD0606DC007C1
:100CC00014D0052084F835002068016821F0010166
:100CD00001600098401C0090B84203D8206800686A
:100CE000C007F6D184F8349084F83580E16C00298F
:100CF00010D001B02046BDE8F04308470168C9059F
:100D0000D5D4016821F01001016084F8349084F892
:100D10003580CCE7BDE8F883800000202DE9F04164
:100D2000044600F091F906465CB1002584F8345081
:100D3000022084F835002068016821F0010101607B
:100D40000DE00120BDE8F08100F07EF9801B052850
:100D500005D920206065032084F83500F2E720687B
:100D60000068C007F0D12268116820480140D4E92A
:100D700001031843D4E90336334318436369184326
:100D8000A3691843E3691843236A18430843616A57
:100D9000042903D1D4E90B131943084310602068D8
:100DA0004069666A20F0070130460E430127042897
:100DB0000CD1A06A0643E06A40B12046FFF7FCFB75
:100DC00020B14020606584F83570BAE7206846613C
:100DD0002046FFF7DDFB94F85C203F2191408160C5
:100DE000656584F835700020ACE700003F8010F0A6
:100DF0002DE9F0410446866D90F834000025012865
:100E00000DD0012084F8340094F835700020012FB3
:100E100007D084F8340002252846BDE8F08102207E
:100E2000FBE7022784F8357060652046FFF7EEFB8C
:100E300094F85C103F208840B0602068016841F061
:100E4000160101602068416941F080014161206C18
:100E500020B12068016841F0080101602068016844
:100E600041F001010160D7E770B5044600F0ECF8ED
:100E70000546601C02D004480078044400F0E4F801
:100E8000401BA042FAD370BD740000202DE9F84F3A
:100E9000DFF87CB100224FF001084FF0030A4FF059
:100EA0000F090BF1040E00BF0B6808FA02F423408F
:100EB000A3426ED14D68022D01D0122D0ED1D5085E
:100EC00000EB850CDCF820505607F70E09FA07F600
:100ED000B5430E69BE402E43CCF82060066855002D
:100EE0000F790AFA05FC07F0030726EA0C06AF4063
:100EF000374307604E68012E05D0022E03D0112E15
:100F000001D0122E0ED18668CF6826EA0C06AF40BB
:100F1000374387604668A6430C79C4F300149440B5
:100F200034434460C6688C6826EA0C06AC403443FF
:100F3000C4604C68E40065D5364C256845F48045AE
:100F40002560246822F0030504F480440094324CA8
:100F50002E19D6F8084895072F0F09FA07F5AC4364
:100F60002E4DA84201D1002524E02D4DA84201D1EB
:100F700001251FE02B4DA84201D102251AE02A4D80
:100F8000A84201D1032515E0284DA84202D104252D
:100F900010E037E0264DA84201D105250AE0254D95
:100FA000A84201D1062505E0234DA84201D107251D
:100FB00000E00825BD402543C6F80858DBF800408E
:100FC0005D464E689C43F60300D51C432C60DEF85A
:100FD000004075464E689C43B60300D51C432C6008
:100FE0000B4D08352C684E689C43F60200D51C4317
:100FF0002C60074D0C352C684E689C43B60200D51A
:101000001C432C60521C102AFFF44EAFBDE8F88F31
:10101000003C0140443802400030014000000240E2
:101020000004024000080240000C02400010024090
:101030000014024000180240001C02400AB1816105
:1010400070470904FBE70000014880687047000012
:101050007400002002488168027811448160704762
:10106000740000200B4810B5016841F40071016064
:10107000016841F480610160016841F480710160A0
:10108000032000F06FF8002000F006F800F024F8CC
:10109000002010BD003C024070B50D4D04464FF4D9
:1010A0007A712878B1FBF0F00A490968B1FBF0F0D9
:1010B00000F074FF48B9102C07D200222146501EC0
:1010C00000F030F800206C6070BD012070BD0000A1
:1010D00074000020800000200A4808B5016841F42F
:1010E00080410160006800F4804000900548001FC6
:1010F000016841F080510160006800F0805000906C
:1011000008BD000044380240002809DB00F01F023F
:10111000012191404009800000F1E020C0F8001159
:1011200070470000F0B40E4B1B680C46C3F302235B
:10113000C3F10705042D00D90425191D072901D283
:10114000002300E0DB1E012606FA05F1491E2140BE
:1011500099409E40761E16403143F0BC02F022BDFD
:101160000CED00E0064900F0070208684FF6FF03A7
:10117000184040EA0220034A10430860704700000C
:101180000CED00E00000FA057047006841620020A5
:101190007047F0B50368586A39B19C6A4FF482769B
:1011A00000EB144400204D1E0AE040EA0240986221
:1011B0000FE006EB8007DF59401C04EB1744C0B278
:1011C000A842F6D344EA02404FF4807202EB810158
:1011D00058500020F0BDD0F8040401F00EBDC1EB62
:1011E000C10200EB8202D0F80404926C01F061BCF1
:1011F000C1EBC10200EB8202D0F80404D2F808224D
:1012000001F0BABCD0F8040401F0F9BC70B5044692
:101210000B0601F00F00C0EBC00104EB81014FF0A1
:1012200001024FF0000503D581F83D203C3103E079
:1012300081F8FD5101F5FE71087094F8BC03012896
:1012400008D084F8BC23206802F050F884F8BC531E
:10125000002070BD022070BD70B5044601F00F0083
:101260006268904201D9012070BD0B0601F00F01A8
:10127000C1EBC10104EB81014FF001024FF0000509
:1012800003D581F83D203C3103E081F8FD5101F5A3
:10129000FE718D70087094F8BC03012808D084F8A2
:1012A000BC23206802F0FEF984F8BC53002070BD16
:1012B000022070BD01F00F01C1EBC10100EB810004
:1012C000D0F8140270472DE9F04104460F0601F0F2
:1012D0000F00C0EBC00104EB81014FF001064FF09D
:1012E000000503D581F83D603C3103E081F8FD51F4
:1012F00001F5FE7108708A60CB704A7802B1C8802F
:10130000022B00D10D7194F8BC03012809D084F898
:10131000BC63206801F03AFF284684F8BC53BDE85E
:10132000F0810220FBE770B50C4601F00F05C5EB1C
:10133000C50100EB8101C1F81032C1F80822002379
:10134000C1F8143281F8FD3181F8FC51036901F5CF
:10135000FE71012B00D10A612207027C006803D0D4
:1013600002F0F8F9002070BD02F0E4F8FAE770B579
:1013700004460D4601F00F006168884201D9012042
:1013800070BD29064FF000064FF0010207D5C0EBF3
:10139000C00104EB810181F83D203C3107E0C5EB41
:1013A000C50104EB810181F8FD6101F5FE718A70D0
:1013B000087094F8BC03012807D084F8BC23206887
:1013C00002F09CF9280702D007E0022070BD217CC2
:1013D00004F57172206802F039F984F8BC630020CA
:1013E00070BD70B50C4601F00F05C5EBC50100EBF3
:1013F00081010B658A6400234B65012381F83D3030
:1014000001F83C5F0369012B00D10A612207027CCD
:10141000006803D002F09EF9002070BD02F08AF847
:10142000FAE700002DE9FC5F05680446284602F053
:10143000BAFA00287ED1206802F0E1FA002879D0BB
:10144000206802F0DCFA800704D52068416901F0C9
:1014500002014161206802F0D2FA010304F57170C3
:101460004FF0010A4FF0080B009075D50026206858
:1014700002F0A4FA0746DFF808946BE0F80767D09B
:10148000F1B2206802F0B3FA8046C00707D005EB3E
:101490004611C1F808AB3146204600F0D7FE5FEA9E
:1014A000087032D52068016C00EB46100191D0F82D
:1014B000081B2269012A019A0FD0F24B9A4214D1DB
:1014C000090403D54FF40041C0F8081B204600F082
:1014D000C9FA206901280FD013E04A4505D909044B
:1014E00003D54FF40041C0F8081B204600F0BAFABB
:1014F00001984845EDD804E020680121009A02F0E7
:10150000A5F805EB4611C1F808BB5FEAC86004D531
:1015100005EB46111020C1F8080B5FEA88600ED574
:101520002069012804D120680121009A02F08EF878
:10153000202100E0A1E105EB4610C0F8081B5FEA9E
:10154000884005D505EB46104FF40051C0F8081B44
:101550007F08761C002F91D1206802F050FA4003DA
:101560004FF000095FD5206802F021FA07460026F7
:1015700057E0F80753D0F1B2206802F026FA80460F
:10158000C00726D006F00F020AFA02F0D5F8342878
:101590008243C5F8342805EB4610C0F808A9206935
:1015A000012807D1C6EBC60004EB8000D0E9112169
:1015B00011448164F1B22046FFF711FE2069012831
:1015C00007D136B9206D20B920680121009A02F0B8
:1015D0003DF85FEA087003D505EB4611C1F808B97C
:1015E0005FEAC86004D505EB46111020C1F8080970
:1015F0005FEA486004D505EB46104021C0F80819A1
:101600005FEA887004D505EB46100221C0F808197E
:101610005FEA086003D53146204600F085FE7F086A
:10162000761C002FA5D1206802F0E9F9002811DA14
:10163000D5F8040820F00100C5F8040894F8F40374
:1016400001282BD0204600F0F1F92068416901F013
:1016500000414161206802F0D2F900050BD5D5F8B0
:101660000808C00702D0204600F024FA206841692B
:1016700001F400614161206802F0C1F9C00461D544
:10168000D5F8040820F00101C5F8041810212068DD
:1016900002F06AF900214FF67F321AE084F8F493E1
:1016A00000212046FFF770FDCFE700BF05EB41109A
:1016B000C0F80829D0F8003923F40013C0F8003925
:1016C000C0F8082BD0F8003B23F40013C0F8003B0F
:1016D000491C60688842E9D8D5F81C0840F001111F
:1016E000C5F81C18206B002828460DD0D0F88408B7
:1016F00040F00B00C5F88408D5F8440840F00B0111
:101700002846C5F844180DE0D0F8140842F22B0121
:101710000843C5F81408D5F8100840F00B01284616
:10172000C5F81018D0F8000820F4FE61C5F80018BC
:10173000217C2068009A01F089FF2068416901F44A
:1017400080514161206802F05AF9800415D5206863
:1017500001F05CFD206802F019F9E06000F05AFA2F
:101760000146227B206802F085F9204600F048F906
:101770002068416901F400514161206802F03FF99D
:10178000C00634D52068816921F0100181612F6A7B
:1017900007F00F00C0EBC00004EB8006C7F3434026
:1017A00006F5FE76022802D0062811D01AE047F688
:1017B000F070074216D0C7F30A1217462846F168A0
:1017C00002F021F9F0683844F060B069384408E06C
:1017D00008222846009902F016F9B069C7F30A11E9
:1017E0000844B0612168886940F010008861206871
:1017F00002F005F9000707D5204600F01BF9216823
:10180000486900F008004861206802F0F8F8C0025A
:1018100008D50021204600F037F82168486900F417
:1018200080104861206802F0EAF8800208D50021A3
:10183000204600F02DF82168486900F40010486146
:10184000206802F0DCF8400007D52046FFF7C3FC13
:101850002068416901F080414161206802F0CFF8C1
:1018600040070AD520684568680702D52046FFF77B
:10187000C9FC2068416829434160BDE8FC9F000025
:101880000A30544F0A31544FD0F8040401F006BA1C
:10189000D0F8040401F004BA2DE9F0418AB0040044
:1018A00005D094F8BD032668002520B108E001208A
:1018B0000AB0BDE8F08184F8BC53204600F05EF821
:1018C000032084F8BD03F06BC00500D425612068B7
:1018D00001F02AFE04F11001282288466846FEF72E
:1018E000A0FC94E80F0001F0ABFC0226C8BB00216D
:1018F000206802F096F8002001270EE0C0EBC0013E
:1019000004EB810181F83D7001F83C0FC880CD7077
:101910008D60CD60401CC0B24D6161688142EDD8E0
:10192000002011E0C0EBC00104EB810181F8FD5102
:1019300081F8FC0181F8FF51C1F80452C1F8085246
:10194000401CC0B2C1F8105261688142EAD8282216
:1019500041466846FEF765FC94E80F0001F01EFD65
:1019600010B184F8BD63A2E784F8385084F8BD73E1
:10197000206801F007FD00209AE7000010B586B04E
:10198000044614216846FEF765FC2068B0F1A04FBC
:101990002FD119480021026842F00102026000685C
:1019A00000F0010005904FF4C05000900220CDE9F6
:1019B0000101032003900A20049069460F48FFF7B5
:1019C00065FA0D48001D016841F0800101600A4878
:1019D0001430016841F4804101600068002200F485
:1019E0008040059011464320FFF79CFB4320FFF702
:1019F0008BFB06B010BD00003038024000000240F2
:101A000070B50446C068012570B1022801D0FEF708
:101A100012FE2946D4F8040401F093F9D4F8040422
:101A2000BDE8704001F053B90025F2E7D0F8040496
:101A300001F075B9D0F8040401F077B910B5044687
:101A400090F8BC0301280BD0012084F8BC0384F873
:101A50003810206801F0FCFF002084F8BC0310BDA2
:101A6000022010BDD0F8042400F57171104601F079
:101A700074B910B50446006894F8BC13012906D067
:101A8000012184F8BC13A16A012902D008E00220D8
:101A900010BDA169012903D0816B41F480318163BC
:101AA000206801F063FC206801F048FF002084F802
:101AB000BC0310BD10B50446D0F8040401F08CF945
:101AC0002068D0F8001E41F00101C0F8001E206A15
:101AD000002804D00248016841F00601016010BDF1
:101AE00010ED00E02DE9F0470E46050065D0DFF867
:101AF0001481D8F80000F7B200F00F00B04207D20E
:101B000088F80070D8F8000000F00F00B04254D1FF
:101B100028683D4C810712D5400703D5206840F462
:101B2000E05020602878000703D5206840F460402A
:101B300020602068A96820F0F00008432060287821
:101B4000C0072DD0304968680839012812D0022812
:101B500013D0032811D00968890700292DDA2168DC
:101B600021F0030101432160FFF76EFA814641F243
:101B7000883A0EE009688903EFE709688901ECE714
:101B8000FFF762FAA0EB0901514502D90320BDE835
:101B9000F0872068696800F00C00B0EB810FEFD18E
:101BA000D8F80010404601F00F01B14207D9077084
:101BB000006800F00F00B04201D00120E7E728786C
:101BC000400705D52068E96820F4E050084320600C
:101BD0002878000706D52068296920F4604040EA8B
:101BE000C100206000F01CF82168084AC1F303110D
:101BF000515CC840064908600020FFF74DFA0020FC
:101C0000C5E70000003C0240083802405C41000883
:101C1000800000200148006870470000800000201C
:101C2000154810B5006810F00C02144813D041108C
:101C3000042A0FD0082A0ED10F4C241F22682368D3
:101C400002F03F025B0207D52068C0F38810A0FBBA
:101C5000010106E0084610BD2168C1F38811A1FB0F
:101C600000010023FEF7ACFA2168C1F30141491CD1
:101C70004900B0FBF1F010BD083802400024F40028
:101C80002DE9F84F050076D02878DFF8F8B2BE4C81
:101C9000C00749D0DBF800105846C1F38101012983
:101CA00008D00068C0F3810002280AD1201D006816
:101CB000400206D52068800336D568680028E2D047
:101CC00032E06868B0F5803F10D0B0F5A02F2068F2
:101CD00010D020F480302060206820F48020206024
:101CE0006868A0B1FFF7B0F906460CE0206840F440
:101CF0008030F4E740F480202060F7E7FFF7A4F994
:101D0000801B642873D820688003F7D50CE0FFF7A8
:101D10009BF9064605E000BFFFF796F9801B642893
:101D2000F0D820688003F7D42878DFF86082800735
:101D30004FF000093ED5DBF80010584611F00C0FAB
:101D400009D00068C0F3810002280BD18D48001F24
:101D50000068400206D42068800715D5E86801288D
:101D600009D111E0E868B8B10120C8F80000FFF718
:101D70006BF9064605E002E1FFF766F9801B0228D1
:101D8000C0D820688007F7D52068296920F0F800BE
:101D900040EAC10020600DE0C8F80090FFF754F958
:101DA000064604E0FFF750F9801B02281FD8206880
:101DB0008007F7D42878000722D5724E74486969E5
:101DC0006C3671B101210160FFF73EF9074604E06E
:101DD000FFF73AF9C01B022809D830688007F7D509
:101DE0000EE0C0F80090FFF72FF9074605E083E00A
:101DF000FFF72AF9C01B02287ED830688007F7D485
:101E00002878400768D5DFF87CA100270AF1380A56
:101E1000DAF80000C0000BD4DAF8001041F080516D
:101E2000CAF80010DAF80000012700F08050009096
:101E3000584E3068C00510D4306840F4807030606F
:101E4000FFF702F9009005E0FFF7FEF80099401A4D
:101E5000022851D83068C005F6D54A4EA8686836C1
:101E600001280FD00528306810D020F00100306024
:101E7000306820F004003060A868B8B1FFF7E4F8DB
:101E800000900FE0306840F00100F4E740F00400FB
:101E90003060F7E7FFF7D8F80099411A41F288302F
:101EA000814264D830688007F4D50EE0FFF7CCF8A3
:101EB000009007E0FFF7C8F80099411A41F2883016
:101EC000814254D830688007F4D42FB1DAF800107A
:101ED00021F08051CAF80010A869C0B3DBF80010E7
:101EE000C1F3810102294AD00228484607D0C8F828
:101EF0006000FFF7A9F800E039E005463AE0474600
:101F0000C8F86000FFF7A0F8064604E0FFF79CF869
:101F1000801B02282BD820688001F7D4D5E907015F
:101F20000843A96A1C4A490802EB01416A6A41EA6E
:101F30008211084395F82C1040EA01611148001FF6
:101F4000016001203866FFF77FF8054605E014E0E0
:101F5000FFF77AF8401B022809D820688001F7D5DE
:101F60000BE000BFFFF770F8401B022802D90320E6
:101F7000BDE8F88F20688001F4D40020F8E7012044
:101F8000F6E70000083802400038024000004742EF
:101F9000800E4742007000400000FFFF10B5401E59
:101FA000B0F1807F01D3012010BD4FF0E0246061CB
:101FB0000F21601701F0F6FD0020A06107202061CD
:101FC000002010BDFEE70000F0B500230A243025F4
:101FD00037261F4611E000BFB4EB107F02D905EB96
:101FE000107C01E006EB107C01F813C001EB430C00
:101FF00000015B1C8CF80170DBB29342ECD3F0BDA6
:102000007FB500241448009401940294114903946C
:10201000C0E90014012505618460047680F8204041
:102020000E49C0E90A140226C661C46080F8304037
:102030004561FEF7AAFBCDE90045694606480294D2
:10204000FEF7FAFA0320CDE9000669460248FEF7DA
:10205000F3FA7FBD00200140A00100200100000F25
:102060007FB500241548009401940294124903940A
:10207000C0E90014012505618460047680F82040E1
:102080000F49C0E90A140226C661C46080F83040D6
:102090004561FEF77AFB0720CDE900056946029409
:1020A0000648FEF7C9FA0B20CDE900066946034849
:1020B000FEF7C2FA7FBD000000210140E8010020C8
:1020C0000100000F2DE9F04F87B014216846FEF79C
:1020D000C1F83B480024016841F01001016001682B
:1020E00001F010010591016841F0040101600168EF
:1020F00001F004010591016841F08001016001686F
:1021000001F080010591016841F001010160016861
:1021100001F001010591016841F0020101600168CF
:1021200001F002010591016841F0080101600068B9
:10213000DFF8908000F008004FF6F076059000225E
:1021400031464046FEF77AFFDFF87C9000223146A8
:102150004846FEF773FFDFF874A000223146504670
:10216000FEF76CFFDFF868B04FF470470022394685
:102170005846FEF763FF01250096CDE901546946F4
:1021800040460394FEF782FE0096CDE9015469466D
:1021900048460394FEF77AFE0096CDE9015469465D
:1021A00050460394FEF772FE0097CDE9015469464C
:1021B00058460394FEF76AFE07B0BDE8F08F0000B2
:1021C0003038024000100240000802400004024083
:1021D000000C024010B500220F49104800F042FCEC
:1021E00008B1FEF728FA0E490C4800F01BFE08B1B2
:1021F000FEF721FA0B49094800F040FA08B1FEF752
:102200001AFA064800F064FE002803D0BDE810402A
:10221000FEF711BA10BD000014000020FC020020DF
:102220006001002064000020FEE770471CB5042018
:10223000019001A96846FEF77DF9684601F07CFD32
:102240000148FFF7EFF81CBD980500202DE9F0418B
:10225000044600680E46016C00EB4615D5F8080BE5
:10226000276920234FF40042012F08D02C4FB94298
:102270004FD1010449D500BFC5F8082B4DE0DFF868
:10228000A4C05FEA007E04F5717711D5614503D9DA
:10229000000401D5C5F8082B2046FFF7E3FB3A46BA
:1022A0000121206801F0D2F90820C5F8080B34E0BC
:1022B0005FEA806E02D5C5F8083B2EE010F0280FCB
:1022C0002BD1614501D90004D6D4C6EBC60004EB7E
:1022D0008000D5F8102BD0F80412C2F312028A1A2B
:1022E000C0F81422D0F808221144C0F80812F1B244
:1022F0002046FEF77DFF86B9D4F8100268B93A4649
:102300000121206801F0A2F907E0800601D5C5F897
:10231000083BF1B22046FEF76BFF0020BDE8F081DC
:102320000A31544F0A30544F2DE9F84F0E46C1EB95
:10233000C60100EB810481460568D4E914103C34E1
:10234000884202D90120BDE8F88F081AA1688142AD
:1023500000D20846C01C870805EB46181BE000BFEA
:10236000A0EB010AA068504500D282460AF10300A2
:10237000870899F8100000901FFA8AF3F2B22846F5
:10238000E16801F0EBFBE16801EB0A00E060A169A4
:1023900001EB0A00A061D8F8180980B2B84205D351
:1023A000D4E90501814201D20028D9D1D4E905013F
:1023B000884208D806F00F0101208840D5F834186B
:1023C0008143C5F834180020BDE770477047FEF719
:1023D00041BE000010B592B030216846FDF73AFFCB
:1023E00014210CA8FDF736FF1A480024016841F0BB
:1023F00080510160006800F080501190164801681B
:1024000041F48041016000684FF4803100F4804065
:1024100011900320CDE900010121039110210491C5
:1024200002214A05CDE906120422CDE90A100892DC
:10243000482209926846FFF723FC0F20CDE90C04DF
:102440000E940F9400210CA81094FFF74BFB12B0D0
:1024500010BD000040380240007000401048016884
:1024600041F4700101600F48016841F00101016011
:102470000C4A00210832116002680B4B1A400260BE
:10248000031D0A4A1A60026822F48022026005488D
:102490000C3001600249580680390860704700001E
:1024A00088ED00E000380240FFFFF6FE1030002407
:1024B0002DE9F041D0F89832D0F89022DAB101EB52
:1024C000810400EB84040025E6694EB1C1EBC1072D
:1024D00003EB87035B6CB6FBF3F703FB176323B1D6
:1024E000C2F814510020BDE8F08100231A46E561CE
:1024F00000F07BFCF6E70220F5E770B50546D0F862
:10250000904200F087FBC4F80C01D5F8900248B166
:10251000D5F89412D4F80401CA6804F5867190477E
:10252000002070BD022070BD70B5044600268121D8
:1025300000F0B6FA002501212046E56200F0B0FA6D
:1025400082212046C4F8585100F0AAFA2564D4F834
:10255000900248B1D4F8940204F52474406880478E
:10256000206801F015FD2560304670BD10B5D0E93A
:10257000A44159B194F80001FF2807D08B6894F862
:10258000012121469847FF2084F80001002010BD5A
:102590000A21018000487047880000204321018003
:1025A00000487047D8000020432101800048704750
:1025B0009400002043210180004870471C01002046
:1025C0002DE9F04104460026007C4FF48077012578
:1025D00090B3402302228121204600F063FB402378
:1025E000E56202220121204600F05CFB0823032261
:1025F00082212046C4F8585100F054FB4FF48E70ED
:10260000256401F071FDC4F89002F8B10546D4F8D4
:102610009402006880470020C5F81401C5F818012D
:10262000207CD5F8042198B140230121204600F0F8
:1026300045FB3046BDE8F081FFE73B4602228121A1
:10264000204600F02FFB3B46E562CAE70126F0E793
:102650003B46EAE710B5D0F8901269B1027C002A37
:10266000D1F8042105D04023012100F027FB0020F0
:1026700010BD4FF48073F7E7022010BD0246022020
:10268000002902D00020C2F894127047D0F89002BE
:10269000C0F8041100207047D0F89002C0F8102153
:1026A000C0F80811002070472DE9FC410546D0F81C
:1026B000907200208DF80000ADF8040006460878FE
:1026C0000C4610F0600121D020293BD1E288AAB14C
:1026D0000006607807D5D5F894128B68394698477C
:1026E000E288394626E087F80001A07987F80101E1
:1026F000E2883946284600F06AF828E0D5F89412B6
:10270000607800228B682146984720E0607820B1ED
:102710000A2809D00B2815D110E095F87402032877
:1027200010D1022201A905E095F87402032809D10D
:1027300001226946284600F064F808E095F8740222
:10274000032804D02146284600F036F802263046F9
:10275000BDE8FC8110B5D0F89012A1B1D1F81421D8
:102760000AB1012010BD0122C1F81421D1F81021B5
:102770000263B1F8102193B2D1F80821812100F051
:1027800034FB002010BD022010BD10B5D0F88C2203
:1027900052689047002010BD134610B50A4600212C
:1027A00000F08CFA002010BD134610B50A46002137
:1027B00000F01BFB002010BD10B50446802100F086
:1027C000F9FA2046BDE81040002100F0F3BA10B538
:1027D0000323C0F84821C0F86C32C0F84C211346DE
:1027E0000A46002100F06AFA002010BD10B505214C
:1027F0000023C0F86C121A46194600F05FFA002058
:1028000010BD10B50223C261C0F86C3202621346DB
:102810000A46002100F0E9FA002010BD10B504219D
:102820000023C0F86C121A46194600F0DEFA0020A8
:1028300010BD000010B50A46024903A000F0E2F8FE
:10284000004810BDA009002043444320436F6E663A
:10285000696700001220088000487047340000209B
:1028600010B50A46024903A000F0CCF8004810BD9C
:10287000A009002043444320496E74657266616379
:1028800065000000042008800048704730000020E8
:1028900010B50A46024903A000F0B4F8004810BD84
:1028A000A009002053544D6963726F656C656374B1
:1028B000726F6E696373000010B50A46024903A087
:1028C00000F0A0F8004810BDA009002053544D337B
:1028D00032205669727475616C20436F6D506F724F
:1028E0007400000010B51A2008800A480168001D15
:1028F0000468001D0068081809D008220649FFF77F
:1029000063FB0549042210312046FFF75DFB0248B6
:10291000801E10BD107AFF1F4A000020F8B5044643
:1029200048880D46010A08294BD2DFE801F04A0425
:1029300009174A4A4048D4F88812207C0A6832E0D5
:10294000207C02260028D4F88C0205D0C16A684693
:1029500088470146467041E0816AF8E7C0B2062820
:102960002FD2DFE800F003080D12171CD4F88812EC
:10297000207C4A6817E0D4F88812207C8A6812E02C
:10298000D4F88812207CCA680DE0D4F88812207C24
:102990000A6908E0D4F88812207C4A6903E0D4F878
:1029A0008812207C8A6969469047014616E0207C9F
:1029B00038B9D4F88C02416B68468847F5E7207C2B
:1029C00020B129462046FFF7F7FEF8BDD4F88C0267
:1029D000016B68468847014607204870BDF8000033
:1029E00048B1EA8852B1824200D90246ADF80020CF
:1029F0002046FFF706FFE8880028E6D12046FFF7CB
:102A00000DFFF8BD70B5002300281ED00446002538
:102A100002E06D1CEDB2641C2678002EF9D1022470
:102A200004EB450414801278CA545B1C0322CA5478
:102A300000245B1C06E0CA545B1CDAB28C54521CA6
:102A4000D3B2401C0278002AF5D170BD01004FF0CE
:102A5000000004D0012901D0022901D002207047D2
:102A60000120704710B580B1D0F88C3213B100232B
:102A7000C0F88C3209B1C0F88812012180F87412B4
:102A8000027000F0CBF8002010BD022010BD10B580
:102A9000D0F89802FEF7E0FBBDE81040FFF7D6BF84
:102AA00010B5D0F89802FEF7B1FBBDE81040FFF773
:102AB000CDBF2DE9F0411746044651B1D4F88C0240
:102AC00042691AB194F87402032851D00220BDE87B
:102AD000F081D4F86C32002504F11400022B03D0ED
:102AE000042B3AD0C3B33CE0D0E903639E4207D93C
:102AF000F11AC1608AB239462046FFF755FE12E04E
:102B00008068B0FBF3F103FB110199B9984211D32E
:102B1000D4F8701288420DD2002211462046FFF7E9
:102B200043FEC4F8705200231A461946204600F0AE
:102B3000C5F816E0D4F88C02C16829B194F8740283
:102B4000032801D1204688478021204600F032F931
:102B50002046FFF74BFE04E0FFE78021204600F00F
:102B600029F994F87802012804D184F8785201E018
:102B7000204690470020AAE770B51546044649B1A3
:102B8000D4F88C0282691AB194F87402032830D008
:102B9000022070BDD4F86C1204F5A070032902D095
:102BA00005291ED027E0D0E903218A420BD9531A08
:102BB000C3600846834200D303469AB229462046A2
:102BC000FFF7EAFD17E0D4F88C02016929B194F807
:102BD0007402032801D1204688472046FFF71EFED5
:102BE00009E000200146C4F86C02204600F0E2F83B
:102BF00001E020469047002070BD0020704710B5CE
:102C0000012180F87412D0F88C2201795268904723
:102C1000002010BDD0F89802FEF74CBB10B501782B
:102C200039BB15490222C1F80404C0F898124FF0CC
:102C3000A0400860042048600020C1E90320C1E9E9
:102C4000062008624862C86208630846FEF724FE50
:102C500008B1FDF7F0FC80210748FEF796FA402204
:102C600000210548FEF795FA802201210248FEF76F
:102C700090FA002010BD0000980500200A0601F01F
:102C80007F01D0F89802C1EBC10100EB810002D5B1
:102C900090F83E00704790F8FE01704700207047A2
:102CA0000020704710B51C461346D0F89802224603
:102CB000FEF709FBBDE81040FFF7C8BE10B5D0F81D
:102CC0009802FEF730FBBDE81040FFF7BFBE70B5BD
:102CD0000022044640231146FFF7E4FF4026012569
:102CE000C4F850613346002280212046C4F8445184
:102CF000FFF7D8FF6662A56184F874520020C4F81B
:102D00006C026060C4F87C02D4F8900228B1D4F858
:102D10008C020021426820469047002070BD90F848
:102D2000751280F874120020704710B590F8741274
:102D3000032904D1D0F88C12C96901B18847002059
:102D400010BD01740020704710B5D0F89802FEF74E
:102D500075FEBDE81040FFF779BE70B5044600F57A
:102D60002070054600F04AF80120C4F86C02B4F85F
:102D70008602C4F8700294F8800210F01F010AD095
:102D800001290DD0022910D000F08001204600F06A
:102D900011F8002070BD2946204600F09EF8F8E7A3
:102DA0002946204600F0CAF9F3E72946204600F0FC
:102DB0001DF9EEE710B5D0F89802FEF7D8FABDE895
:102DC0001040FFF743BE10B5D0F89802FEF751FE51
:102DD000BDE81040FFF73ABE90F8741280F8751203
:102DE000042180F874120020704710B5D0F89802C2
:102DF000FEF7F7FABDE81040FFF728BE0A78027028
:102E00004A7842708A78CB7802EB032242800A79B2
:102E10004B7902EB032282808A79C97902EB012186
:102E2000C18070470246002011B1C2F88C12704771
:102E30000220704710B5D0F88C2202241AB1126813
:102E4000904700B90024204610BD000070B50E4622
:102E50001E4D897804462970012931D894F87402EE
:102E600002280BD003280FD031462046FFF7A4FCE0
:102E700029782046BDE87040FFF787BCD9B1032010
:102E8000616084F8740209E071B16068884212D010
:102E9000C1B22046FFF779FC297861602046FFF730
:102EA000C9FF02280CD006E0022084F874022046F4
:102EB0006160FFF76AFC2046BDE87040FFF7AEBCDA
:102EC00031462046BDE87040FFF776BC8400002004
:102ED00010B5FFF778FF002010BD2DE9F0410A780A
:102EE000002612F0600208D0202A01D0402A70D1BA
:102EF000D0F88C22926890476DE04B780022012533
:102F00000A2B66D2DFE803F0405D6557650805656A
:102F10002C29FFF703FD5EE004468888D8B9C888ED
:102F2000C8B94888802816D200F07F0794F8740248
:102F3000032810D084F8767239462046FFF704FF44
:102F40002046FFF76BFC1FB1022084F8740242E0B8
:102F500084F874523FE020463BE0FFF777FF3AE009
:102F6000CB88012B35D190F87432012B04D0022B81
:102F700002D0032B2DD104E08260012200F1080170
:102F800016E00122011D13E090F87422012A03D0FB
:102F9000022A01D0032A1CD1CA88022A19D1C5608D
:102FA000D0F87C1209B10321C160022200F10C01AA
:102FB000FFF727FC0FE0498801290CD1C0F87C52AB
:102FC00011E090F87432012B08D0022B06D0032BAD
:102FD00004D0FFF7F1FB3046BDE8F08149880129B4
:102FE000F9D1C0F87C22FFF719FCF4E72DE9F04194
:102FF0000A46044610780027097910F060030AD0C9
:10300000202B01D0402B50D1D4F88C02114683687C
:10301000204698478FE0C0F34110012806D0507831
:10302000D0B301282AD003283FD107E0D4F88C027E
:10303000114683682046BDE8F041184794F87402B1
:10304000022802D0032872D10AE071B380296ED021
:103050002046FFF7AFFE80212046FFF7ABFE6AE077
:10306000508838B931B1802904D0D08810B92046B1
:10307000FFF7A0FE2046FFF7D1FB5CE094F8740256
:103080000228E2D0032852D1508898BB4806F1D0DC
:103090002046FFF7FCFCEDE7FFE794F874020026FA
:1030A000022803D0032842D112E040E009B1802970
:1030B0003DD1080601F07F0000EB800004EB8001A9
:1030C00001D5143101E001F5A07102220E602AE061
:1030D000080601F00F0000EB800004EB80000AD529
:1030E000806920B301F07F0000EB800004EB8005D5
:1030F00014350BE01FE0D0F84401C0B101F07F00AF
:1031000000EB800004EB800505F5A07541B1802936
:1031100006D02046FFF7B2FD10B10120286000E084
:103120002E60022229462046FFF76BFB03E0114682
:103130002046FFF741FB3846BDE8F08170B50546F3
:1031400008780C4610F0600003D0202801D04028F9
:1031500016D195F87402012803D0022801D0032863
:103160000ED1207901280BD8D5F88C028268284628
:103170009047E188014306D12846FFF74FFB02E064
:103180002846FFF719FB002070BD000070B50A78D3
:10319000012302F00F054E78AB401B4CD0F81C58B1
:1031A000012E17D045EA0343C0F81C3800EB42104B
:1031B000D0F8002B12040BD4D0F8002B0B89C9785F
:1031C000C3F30A031A4344EA81410A43C0F8002BBF
:1031D000002070BD9BB21D43C0F81C5800EB42108C
:1031E000D0F800391B04F3D4D0F800390D89C97820
:1031F000C5F30A0589042B4341EA82510B4323435B
:10320000C0F80039E4E7000000800010D0F8001991
:103210006FF30A01C0F80019D0F80818C1F3410192
:10322000022905D1D0F8001941F00301C0F80019B6
:10323000D0F8041841F48071C0F8041800207047D9
:1032400070B5044606990A9E049D0D98012916D072
:10325000E06840F04000E060204600F02BF8A16BF1
:103260001EB321F48031A163012D07D1A16841F083
:103270000601A160A16841F02001A16070BDA16BB1
:1032800021F48031A163E168094A1140E160E168FD
:1032900021F44011E160012803D1E06840F480107E
:1032A000E060204600F006F8DEE741F48031DAE71E
:1032B000BFFFBDFF01220C4902E0521C8A420BD81D
:1032C0000369002BF9DA026942F00102026101226E
:1032D00004E0521C8A4201D9032070470369DB07CE
:1032E000F7D1002070470000400D030030B50B7887
:1032F0004D78012203F00F0402FA04F4012DD0F8F6
:103300003C5817D025EA0444C0F83C48D0F81C4883
:10331000097801F00F018A4024EA0241C0F81C1824
:1033200000EB4310D0F8001B0E4A1140C0F8001B00
:10333000002030BDA4B2A543C0F83C58D0F81C48CA
:10334000097801F00F018A4091B28C43C0F81C4803
:1033500000EB4310D0F80019034A1140C0F80019DF
:10336000E6E700000078F3EF007833EC10B5D0F812
:10337000041821F00201C0F804180320FDF774FDC1
:10338000002010BD10B5D0F8041841F00201C0F8BB
:1033900004180320FDF768FD002010BD2DE9F04F53
:1033A0000025DDE90BCB0E460446DDF84090099F71
:1033B0002846294604EB8002C2F80411401C0F285D
:1033C000F8D3B9F1000F204618D0006820F400129D
:1033D0002260A06B40F40022A26308468846C4F82D
:1033E000000ED4F800182046C4F80018BCF1010FF4
:1033F00010D0D0F8001841F0030110E0806B40F4C9
:103400000012A263A06B20F40022A263A06B20F440
:103410008022E1E7D0F800180BB141F00101C0F8BB
:103420000018102100F0A0FA00B10125204600F09C
:103430008BFA00B101254046C4F81088C4F81488FE
:10344000C4F81C8800214FF000634FF090484FF6FD
:103450007F3A14E004EB4112D2F800C9BCF1000F2E
:1034600006DA11B1C2F8008904E0C4F8003901E0BD
:10347000C2F80009C2F81009C2F808A9491C8E4216
:10348000E8D8002115E000BF04EB4112D2F800CBD0
:10349000BCF1000F06DA11B1C2F8008B04E0C4F8E9
:1034A000003B01E0C2F8000BC2F8100BC2F808ABF9
:1034B000491C8E42E8D8D4F8101821F480722146B5
:1034C000C4F81028012F08D1134AC1F83028D1F8C8
:1034D0003018124A1143C4F83018A0616FF08040D0
:1034E00060611FB9A06940F01000A061A0690C499B
:1034F0000843A061BBF1000F03D0A06940F00800B1
:10350000A061B9F1010F03D1A06906490843A06188
:103510002846BDE8F08F0000000180000300010094
:1035200000383C8004000040816821F00101816086
:103530000020704770B50D784E78434CEBB200EB2D
:103540004313012E1FD0D3F8100B6FF31200C3F8F2
:10355000100BD3F8100B2040C3F8100B486908B1CA
:1035600088684861D3F8100B40F40020C3F8100BB2
:10357000D3F8100B8C68C4F312042043C3F8100B6B
:10358000012A55D058E04E69002ED3F8106932D088
:103590006FF31206C3F81069D3F810692640C3F818
:1035A00010694E698C68A64200D94C61D3F8104965
:1035B00044F40024C3F81049D3F810494E69C6F307
:1035C00012063443C3F81049012A22D000EB4512F9
:1035D000D2F8003943F00443C2F800394A6932B3E3
:1035E000D0F83428097801F00F03012199400A43EB
:1035F000C0F8342826E02640C3F81069D3F81049F3
:1036000044F40024C3F81049D3F810496FF31204AE
:10361000D8E7096919B100EB4512C2F8141900EB9B
:103620004510D0F8001941F00441C0F8001909E034
:10363000C86808B1C3F8140BD3F8000B40F004407D
:10364000C3F8000B002070BDFFFF07E010B5036C4E
:10365000134CA34203D9D0F8003B002B1EDB002300
:10366000C0F8103BD0F8103B43F40023C0F8103BE7
:10367000D0F8103B43F01803C0F8103BD0F8103BD3
:1036800043F0C043C0F8103B012907D1C0F8142B08
:10369000D0F8001B41F08021C0F8001B002010BDB5
:1036A0000A30544F4A780B78012A00EB43100BD0B4
:1036B000D0F8002B22F40012C0F8002BC97803299F
:1036C00014D0022912D017E0D0F8002922F40012F9
:1036D000C0F80029C978032901D002290CD1D0F8FB
:1036E000001941F08051C0F8001905E0D0F8001B26
:1036F00041F08051C0F8001B002070470A784B78D9
:10370000D1B200EB4110012B12D0D0F8001B0029E0
:1037100006DB2AB1D0F8001B21F08041C0F8001B65
:10372000D0F8001B41F40011C0F8001B00207047C6
:10373000D0F80019002906DB2AB1D0F8001921F0D1
:103740008041C0F80019D0F8001941F40011C0F808
:103750000019EBE7F8B50C784F78774DE3B26FF0CE
:10376000604600EB4313012F26D0D3F8104B6FF3C4
:103770001204C3F8104BD3F8104B2C40C3F8104B75
:103780004C69002C74D08D682C44641EB4FBF5F495
:10379000D3F8105BA4B206EAC4463543C3F8105B05
:1037A000D3F8105B8E686643C6F312042543C3F852
:1037B000105B012A71D0A6E04F691FB3D3F81079CE
:1037C0006FF31207C3F81079D3F810792F40C3F8BC
:1037D00010794F698D682F447F1EB7FBF5F506EA17
:1037E000C545D3F810693543C3F81059D3F81059BB
:1037F0004E69C6F312063543C3F81059CD78012D32
:1038000010D01BE0D3F810692E40C3F81069D3F82C
:10381000105945F40025C3F81059D3F810596FF327
:10382000120509E0D3F8105925F0C045C3F8105926
:10383000D3F8105945F00055C3F81059012A18D093
:1038400000EB4413D3F8004944F00444C3F80049A2
:10385000CC78012C2FD04A6962B3D0F8342809788B
:1038600001F00F03012199400A43C0F8342860E0B9
:1038700036E00A691AB100EB4413C3F81429C97879
:1038800001290FD1D0F80818C90500EB4411D1F86F
:10389000002903D442F0005202E030E042F08052AE
:1038A000C1F8002900EB4410D0F8001941F00441A0
:1038B000C0F800193DE0D0F80848E405D3F8004905
:1038C00002D444F0005401E044F08054C3F80049AD
:1038D00000928A8A93B20A78C96800F03FF928E01A
:1038E000D3F8104B8D68C5F312052C43C3F8104B69
:1038F000D3F8104B44F40024C3F8104B59E7CA68BE
:103900000AB1C3F8142BC97801290CD1D0F80808E2
:10391000C005D3F8000B02D440F0005001E040F0A5
:103920008050C3F8000BD3F8000B40F00440C3F8FC
:10393000000B0020F8BD0000FFFF07E0816841F0A8
:103940000101816000207047002110220261054AB8
:10395000491C914201D9032070470369DB06F7D463
:1039600000207047400D03000022202343EA81110C
:1039700001610549521C8A4201D90320704703693D
:103980009B06F7D400207047400D0300D0F80808CC
:1039900010F0060004D0022803D0062801D00F2022
:1039A000704702207047406900F001007047D0F86E
:1039B0001818D0F81C08084080B27047D0F81818C2
:1039C000D0F81C080840000C704710B5D0F810382B
:1039D000D0F8342801F00F0400EB4110E24002F06F
:1039E0000102D0F8080943EAC212104010BD00EBF2
:1039F0004111D1F8081BD0F81408084070474169FC
:103A0000806908407047D21C10B59308002200F569
:103A1000805002E00468521C10C19A42FAD3084652
:103A200010BD10B5C26822F0C042C260012902D0A8
:103A300029B1012010BDC16841F0005102E0C16808
:103A400041F08041C1603220FDF70EFA002010BD28
:103A5000D0F8002822F4FE62C0F80028D0F8002830
:103A60004FF4FE6303EA01110A43C0F80028002066
:103A700070470000022A3ED1264A274B0A449A4248
:103A800001D20F2138E0254A254B0A449A4201D23F
:103A90000E2131E0234A244B0A449A4201D20D21DF
:103AA0002AE0224A224B0A449A4201D20C2123E006
:103AB000204A214B0A449A4201D20B211CE01F4AA2
:103AC0001F4B0A449A4201D20A2115E01D4A1E4B9F
:103AD0000A449A420FD31D4A1D4B0A449A4201D20E
:103AE000082109E01B4A11441B4A914201D20721D7
:103AF00002E0062100E00921C26822F47052C2608F
:103B0000C2684FF4705303EA81210A43C260002067
:103B100070470000405327FF00350C00401E1BFF7C
:103B200040420F0000DC0BFF804F1200808CF9FE3A
:103B300020D6130060B6E5FE60E3160000D3CEFE8B
:103B400040771B00C05BB3FEC091210000CA91FE0C
:103B500020753800E05459FEE09C410010B5029CED
:103B600064B9DB1C9C0800EB0230002300F5805098
:103B700002E004C902605B1CA342FAD3002010BD1E
:103B8000FEE700000FB4054B10B503A9044A0298E4
:103B900000F028F810BC5DF814FB0000753F000829
:103BA000100000200907090E002804DB00F1E020C6
:103BB00080F80014704700F00F0000F1E02080F85A
:103BC000141D704702E008C8121F08C1002AFAD16C
:103BD00070477047002001E001C1121F002AFBD18D
:103BE000704700002DE9FF4F89B09B460446002531
:103BF00006E025280BD05A460B999047641C6D1C93
:103C000020780028F5D10DB02846BDE8F08F0027B8
:103C1000B8460122474900E0074314F8013F203B22
:103C200002FA03F00842F7D120782E2819D114F8AF
:103C3000010F47F004072A280ED06FF02F022078DA
:103C4000A0F1300109290CD808EB880102EB4101F1
:103C500000EB0108641CF2E70A98641C50F8048B1E
:103C60000A9020780028CED0642808D0692806D091
:103C700075281ED05A460B9990476D1C58E00A993A
:103C80004FF00A0901C90A91002802DA40422D21A9
:103C900002E0390504D52B218DF82010012103E025
:103CA000F90704D02021F7E78A4608AE0DE000218D
:103CB000FAE70A994FF00A0901C90A91F7E749465C
:103CC000FCF7D3FA303106F8011D0028F7D1ADEB2F
:103CD000060000F12009780701D44FF00108C8451B
:103CE00002DDA8EB090000E000208046002706E086
:103CF00008A85A46C05D0B9990476D1C7F1C57451C
:103D0000F6DB04E030205A460B9990476D1CB8F161
:103D10000001A8F10108F5DC05E016F8010B5A4690
:103D20000B9990476D1CB9F10001A9F10109F4DC70
:103D3000641C65E7092801002DE9F0470546007875
:103D4000002827D06878002824D0A878002821D01F
:103D5000E87800281ED00024A146285D060971429B
:103D600000EB0110C0B28708794200EB8100C0F37C
:103D700046083146204600F00FF83946304600F03C
:103D80008BF84146304600F04BF805F80490641C6F
:103D9000042CE2D3BDE8F0871FB500220092019207
:103DA0000292039204004FF001024FF0020306D08A
:103DB000012C06D0022C07D003280AD106E001927C
:103DC00000E00193154804E0019200E001931348DC
:103DD00048300C290FD2DFE801F00E06080A0C1259
:103DE0001416181A1C1E009205E0009303E003212C
:103DF00000E0042100916946FCF71EFC1FBD05216F
:103E0000F8E70621F6E70721F4E70821F2E70921A0
:103E1000F0E70A21EEE70B21ECE70000A00100200B
:103E200002461C480C2A34D2DFE802F006090C0FC7
:103E300012161A1E22262A2ECAB2102127E0CAB252
:103E4000202124E0CAB2402121E0CAB280211EE034
:103E5000CAB24FF480711AE0CAB24FF4007116E092
:103E6000CAB24FF4806112E0CAB24FF400610EE0B2
:103E7000CAB24FF480510AE0CAB24FF4005106E0D2
:103E8000CAB24FF4804102E0CAB24FF40041FDF7DC
:103E9000D5B870470004024070B5021D002339B147
:103EA0000120012907D0022908D003290BD108E0FD
:103EB0002360636007E0C4E9003004E0C4E9000364
:103EC00001E0206060602948294D121F0C2A4CD265
:103ED000DFE802F0060D141B22262A2E32363A3E67
:103EE00022791021FDF7AAF82278102138E02279F2
:103EF0002021FDF7A3F82278202131E0227940210A
:103F0000FDF79CF8227840212AE022798021FDF7F4
:103F100095F82278802123E022794FF480761AE008
:103F200022794FF4007616E022794FF4806612E091
:103F300022794FF400660EE022794FF480560AE0B1
:103F400022794FF4005606E022794FF4804602E0D1
:103F500022794FF400463146FDF770F82278314659
:103F60002846BDE87040FDF769B870BD0008024002
:103F70000010024005490968C90105D54FF06041AC
:103F80000A68002AFCD0087070470000FCED00E0D1
:103F900010B5002821D0114B0022001F196803E042
:103FA000814203D80A4649680029F9D152B1136801
:103FB000841A9C4204D1006818441060104602E044
:103FC000506000E0186039B102680B1A934203D1C7
:103FD0000B681A4402604968416010BD98010020D6
:103FE00008B5FDF73FF8FEF7F5F9FEF76BF837482F
:103FF000016841F4800101600068002200F4800043
:10400000009011463820FDF78DF83820FDF77CF838
:10401000002211463A20FDF785F83A20FDF774F8A2
:10402000FDF7EEFFFEF71CF8FEF7D4F828A00178A4
:1040300028A0FFF7A7FD08210020FFF7ADFE09210A
:104040000120FFF7A9FE0A210220FFF7A5FE0B21A0
:104050000320FFF7A1FE224E224D06F108040120A5
:10406000FCF702FF1F4802221D499038FCF77AFC3A
:104070001C489038FCF786FB1A489038FCF782FB06
:1040800018489038FCF706FD1549164802220831F9
:104090004838FCF767FC13484838FCF773FB1148B5
:1040A0004838FCF76FFB0F484838FCF7F3FC3168E1
:1040B000B288206801EB02412960A18800EB014031
:1040C000686008210748FCF741FAC8E73038024029
:1040D00030303030303030302D25640A0D00000093
:1040E0000000002030020020F0B50B30154D20F00C
:1040F00007010024144A0FE003688B420BD38B4264
:1041000005D95E1A43184768C3E9006700E04368B1
:10411000136002C004E0021D10680028ECD12046A4
:10412000002802D1286808B10020F0BD064A0748DF
:104130001060074A121A22F00702C0E90024012089
:104140002860D7E79C01002098010020240C002063
:10415000200E0020000610160006101600000000B9
:104160000000000001020304060708098C41000852
:1041700000000020A0010000F802000850420008E2
:10418000A001002080100000D43B0008011413554A
:10419000281B0885041A91041AB9041AE5041A3573
:1041A000041A61041704030904120114020202161E
:1041B0004083044057260201020301031A1A031325
:1041C00011051B080B041A07041A3504192F118254
:1041D000105324F4130A0632022A401C1C0902431D
:1041E000571125C03209041B01020B1305241610B8
:1041F0000105240110090104240202052406170107
:1042000007058203081C1009048D320A15070501F1
:10421000021A01072A81070938442A40072A810720
:10422000112B0907440A3B044413C1251B08290428
:1042300013A92642081A6D0C13B1241B08FB04C1F4
:104240001AA9181A9D041AB5041A910481000000D5
:040000050800018965
:00000001FF
