:020000040800F2
:10000000401200209D010008732100086D1F0008A8
:1000100071210008D9040008893A00080000000096
:1000200000000000000000000000000001230008A4
:100030000906000800000000FF2200080323000852
:10004000B7010008B7010008B7010008B7010008B0
:10005000B7010008B70100080D060008B701000845
:10006000B7010008B7010008B7010008B701000890
:10007000B7010008B7010008B7010008B701000880
:10008000B7010008B7010008B7010008B701000870
:10009000B7010008B7010008B7010008B701000860
:1000A000B7010008B7010008B7010008B701000850
:1000B000B7010008B7010008B7010008B701000840
:1000C000B7010008B7010008B7010008B701000830
:1000D000B7010008B7010008B7010008B701000820
:1000E000B7010008B7010008B7010008B701000810
:1000F000B7010008B7010008B7010008B701000800
:10010000B7010008B7010008B7010008B7010008EF
:10011000B7010008B7010008B7010008B7010008DF
:100120004D050008B701000859050008B70100088F
:10013000B7010008B7010008B7010008B7010008BF
:10014000B7010008B7010008B701000875210008D1
:10015000B7010008B7010008B7010008B70100089F
:10016000B7010008B7010008B7010008B70100088F
:10017000B7010008B7010008B7010008000000003F
:10018000B7010008B7010008DFF80CD000F08CF8C8
:1001900000480047F53B0008401200200648804711
:1001A00006480047FEE7FEE7FEE7FEE7FEE7FEE75C
:1001B000FEE7FEE7FEE7FEE791230008890100085D
:1001C0002DE9F05F0546002092469B46884606468C
:1001D000814640241BE0284641464746224600F01F
:1001E00053F853465A46C01A914110D31146184647
:1001F000224600F03AF82D1A67EB01084F462246D6
:100200000120002100F031F817EB00094E41201EBB
:10021000A4F10104DFDC484631462A464346BDE8E6
:10022000F09F40EA01039B0703D009E008C9121FB1
:1002300008C0042AFAD203E011F8013B00F8013BA0
:10024000521EF9D27047D2B201E000F8012B491ECC
:10025000FBD270470022F6E710B513460A46044663
:100260001946FFF7F0FF204610BD202A04DB203A94
:1002700000FA02F1002070479140C2F1200320FAF9
:1002800003F3194390407047202A04DB203A21FAF7
:1002900002F00021704721FA02F3D040C2F120029F
:1002A0009140084319467047064C074D06E0E06848
:1002B00040F0010394E8070098471034AC42F6D3AD
:1002C000FFF766FFB03D0008D03D000870B58C1800
:1002D00010F8015B15F0070301D110F8013B2A115A
:1002E00006D110F8012B03E010F8016B01F8016B47
:1002F0005B1EF9D12B0705D40023521E0DD401F843
:10030000013BFAE710F8013BCB1A921C03E013F80B
:10031000015B01F8015B521EF9D5A142D8D3002040
:1003200070BD10B50146806B026C12F0500F05D005
:10033000026CD20626D500F027FA10BD016C41F4FC
:100340000071016401688A6812F0405F17D1027E73
:10035000AAB9CA6A12F4700F02D08A6852050ED484
:100360004A6822F020024A60016C21F48071016425
:10037000016CC90403D4016C41F00101016400F077
:1003800001FA10BD806BC26CBDE8104008461047F2
:1003900010B5806B40210164416C41F0040141645F
:1003A00000F0F2F910BD10B5806B00F0ECF910BD53
:1003B000464910B54A6822F440324A604A684368A8
:1003C0001A434A6001684A6822F480724A600168F0
:1003D0004A68036942EA03224A6001684A6822F0D7
:1003E00040724A6001684A6883681A434A6001683B
:1003F0008A6822F400628A6001688A68C3681A43C6
:100400008A60816A6FF07062D14201688A6822F066
:1004100070628A6001688A680CD0836A1A438A60B5
:1004200001688A6822F040528A6001688A68C36A5B
:100430001A4301E022F040528A6001688A6822F083
:1004400002028A6001688A68037E42EA43028A6087
:1004500090F82010002901684A680FD042F4006229
:100460004A6001684A6822F460424A6001684A684A
:10047000174C436A04EB43331A4301E022F4006251
:100480004A600168CA6A22F47002CA620168CA6AD4
:10049000838B104C04EB03531A43CA6201688A68C9
:1004A00022F400728A6001688A6890F8303042EA6B
:1004B00043228A6001688A6822F480628A60016847
:1004C0008A68406942EA8020886010BD00230140AC
:1004D00000E0FFFF0000F0FFFEE700207047002073
:1004E0007047000010B500220549064802F06EF87A
:1004F00003490448403902F063F8002010BD0000B1
:10050000FC0B00201803002010B50146034802F040
:1005100057F8024802F038F8002010BD18030020F8
:10052000094A10B5D2F89022D2F814210AB101205C
:1005300010BD0A460146044802F048F8BDE81040E4
:10054000014802F0A1B8000018030020014800F0A3
:10055000E1BA000058020020014800F0DBBA0000B8
:10056000B802002001681823CAB2103AB2FBF3F2B5
:10057000054B6FF30901032A9B5CC36500D9091D74
:100580008165084670470000983D000810B5014697
:1005900000208B698A6A4FF0C07453B1B3F5005FD5
:1005A00015D072B1012A0CD0022A0AD0032A09D12F
:1005B00004E01AB1012A06D0022A03D1C96AC9018E
:1005C00000D5012010BDC96AA142FAD010BD002A91
:1005D000F7D0012AF2D0022AF3D0032AF3D010BDBB
:1005E00030B50468256825F48025256004686360BB
:1005F0008368402B036803D099600068C26030BDF7
:100600009A600068C16030BD7047000010B50021DD
:10061000084603F083FA064801220178514001F0B0
:100620000101891D0160BDE81040104600F0FCBBCF
:10063000780000207047000078B50024009490F8FE
:100640003C20012A19D0012280F83C200A680723A7
:100650000568092A13D9EE680A3A02EB4202934070
:100660009E43EE600B788A680A3B03EB43039A4093
:100670000368DD682A43DA6010E0022078BD2E6945
:1006800002EB420293409E432E610B788A6803EB93
:1006900043039A4003681D692A431A614A681F236D
:1006A000072A13D205686E6B521E02EB820293403A
:1006B0009E436E630B790A885B1E92B203EB830341
:1006C0009A4003685D6B2A435A6327E005680D2A48
:1006D00012D22E6BD21F02EB820293409E432E63F6
:1006E0000B790A88DB1F92B203EB83039A400368FD
:1006F0001D6B2A431A6311E0EE6A0D3A02EB820287
:1007000093409E43EE620B790A880D3B92B203EB55
:1007100083039A400368DD6A2A43DA62164B056850
:10072000144A9D4206D10D68122D03D1556845F437
:100730008005556005689D4218D10B68102B01D0CB
:10074000112B13D1536843F4000353600968102937
:100750000CD10A490A4A0968B1FBF2F101EB8101A7
:10076000490000E0491E00910029FBD180F83C407F
:10077000002078BD002301400020014088000020B7
:1007800040420F0070477047704770B504004FF04B
:10079000000503D0206C002610B107E0012070BDD9
:1007A000204600F01DF8666484F83C60206CC006AA
:1007B00010D4206C20F4885040F0020020642046C1
:1007C000FFF7F6FD6664206C20F0020040F00100A7
:1007D000206400E0012584F83C60284670BD0000DC
:1007E0002DE9F04786B0064614216846FFF732FD32
:1007F0003A48DFF8E4C01438336800253749032449
:10080000374A07154FF480584FF480494FF4803A27
:10081000634527D10B6843F480730B60096801F4CA
:1008200080710591016841F001010160006869462D
:1008300000F0010005900F208DE83100104600F017
:10084000FFFA294C2748E4E80205274820C4A4E819
:10085000A00364E8075A656236E0B463A66306B095
:10086000BDE8F087DFF884C06345F8D10B6843F436
:1008700000730B60096801F400710591016841F093
:10088000010101600068694600F001000590FF2049
:100890008DE83100104600F0D3FA69461448009400
:1008A00000F0CEFA6946134800F0CAFA0D48124C1F
:1008B000303001C44FF00070E4E802050E48A4E8AF
:1008C000A00364E8075A656200F0F4F90028C4D078
:1008D000FFF7B0FEC1E700000020014044380240AD
:1008E0000000024010640240580200200021014034
:1008F0000004024000080240B8020020F8B50E468D
:1009000000210446009190F83C00012807D0012006
:1009100084F83C0020688368DB0702D011E00220E5
:10092000F8BD836843F0010383603748374B0068A4
:10093000B0FBF3F000EB400000E0401E0090002808
:10094000FBD120688368DB075CD0236C40F2016533
:10095000AB4343F4807323644068400505D5206CA5
:1009600020F4005040F480502064206CC00404D572
:10097000606C20F00600606400E0616484F83C1064
:10098000A16B2448224DC863A16B23480864A16B66
:100990002248C86421686FF022000860206841681E
:1009A00041F0806141602068816841F4807181601C
:1009B0002168134632464C31A06B00F0E5F96868B7
:1009C0001749C006206806D088421BD1816811F003
:1009D000405F13D016E08842F8D0124A904203D10B
:1009E000D1F80423D206F1D00F4A90420AD1D1F8AF
:1009F000041301F01F011029E8D303E0816841F0DE
:100A0000804181600020F8BD8800002040420F0036
:100A10000023014023030008A703000891030008F6
:100A200000200140002101400022014010B5044691
:100A3000002094F83C1001290CD0012184F83C10CE
:100A400021688A6822F001028A6021688A68D207D8
:100A500002D013E0022010BD886820F48070886006
:100A6000A06B00F00FF821684A6822F080624A60AB
:100A7000216C21F4885141F001012164002184F8A6
:100A80003C1010BD2DE9F0410446876D00F0B6FA28
:100A9000064694F835000025022806D080206065BF
:100AA00084F834500120BDE8F0812068016821F00D
:100AB000160101602068416921F080014161206CCC
:100AC00008B9A06C20B12068016821F0080101601C
:100AD0002068016821F0010101600BE000F08EFA4E
:100AE000801B052806D92020606504F8345F0320A8
:100AF0006070D8E720680068C007EFD194F85C10F8
:100B00003F208840B86004F8345F01206070002006
:100B1000C9E700002DE9F84304464FF00009CDF87D
:100B2000009063484FF41651A56D0068B0FBF1F7D3
:100B30002E6894F85C10082000FA01F131420FD0C1
:100B400021680A6852070BD50A6822F004020A607D
:100B500094F85C108840A860606D40F0010060650A
:100B600094F85C104FF0010808FA01F0304208D008
:100B700021684969090604D5A860606D40F002004B
:100B8000606594F85C1004208840304208D02168E9
:100B90000968890704D5A860606D40F004006065AD
:100BA00094F85C1010208840304218D02168096801
:100BB000090714D5A86020680168490304D50068B6
:100BC000000308D5A16C07E00168C90503D40168DA
:100BD00021F008010160216C09B12046884794F892
:100BE0005C1020208840304231D021680968C90655
:100BF0002DD5A86094F8350005282068016806D036
:100C0000490347D5006800031DD4616C1CE021F046
:100C1000160101602068416921F080014161206C6A
:100C200008B9A06C20B12068016821F008010160BA
:100C300094F85C103F208840A86084F8349084F8D1
:100C40003580216D1FE0E16B09B120468847606D5A
:100C500000282BD0606DC00714D0052084F8350023
:100C60002068016821F0010101600098401C00909B
:100C7000B84203D820680068C007F6D184F83490E1
:100C800084F83580E16C002910D001B02046BDE821
:100C9000F04308470168C905D5D4016821F0100167
:100CA000016084F8349084F83580CCE7BDE8F8839F
:100CB000880000202DE9F041044600F09FF9064627
:100CC0005CB1002584F83450022084F83500206897
:100CD000016821F0010101600DE00120BDE8F08113
:100CE00000F08CF9801B052805D9202060650320C1
:100CF00084F83500F2E720680068C007F0D1226868
:100D0000116820480140D4E901031843D4E90336AF
:100D10003343184363691843A3691843E3691843CD
:100D2000236A18430843616A042903D1D4E90B13E9
:100D300019430843106020684069666A20F0070183
:100D400030460E43012704280CD1A06A0643E06A0E
:100D500040B12046FFF71AFC20B14020606584F8BE
:100D60003570BAE7206846612046FFF7FBFB94F830
:100D70005C203F2191408160656584F835700020DA
:100D8000ACE700003F8010F02DE9F0410446866D8D
:100D900090F83400002501280DD0012084F834009B
:100DA00094F835700020012F07D084F83400022514
:100DB0002846BDE8F0810220FBE7022784F8357061
:100DC00060652046FFF70CFC94F85C103F208840DB
:100DD000B0602068016841F0160101602068416937
:100DE00041F080014161206C20B12068016841F030
:100DF000080101602068016841F001010160D7E746
:100E000070B5044600F0FAF80546601C02D00448AC
:100E10000078044400F0F2F8401BA042FAD370BD01
:100E20007C00002070470000044910B50A680242A7
:100E300002D00860FFF7F6FF10BD0000143C01402F
:100E40002DE9F84FDFF87CB100224FF001084FF098
:100E5000030A4FF00F090BF1040E00BF0B6808FAEC
:100E600002F42340A3426ED14D68022D01D0122D11
:100E70000ED1D50800EB850CDCF820505607F70E94
:100E800009FA07F6B5430E69BE402E43CCF8206040
:100E9000066855000F790AFA05FC07F0030726EAF1
:100EA0000C06AF40374307604E68012E05D0022E76
:100EB00003D0112E01D0122E0ED18668CF6826EAFB
:100EC0000C06AF40374387604668A6430C79C4F3ED
:100ED0000014944034434460C6688C6826EA0C06CB
:100EE000AC403443C4604C68E40065D5364C25689A
:100EF00045F480452560246822F0030504F480440D
:100F00000094324C2E19D6F8084895072F0F09FA8D
:100F100007F5AC432E4DA84201D1002524E02D4D0C
:100F2000A84201D101251FE02B4DA84201D1022585
:100F30001AE02A4DA84201D1032515E0284DA84208
:100F400002D1042510E037E0264DA84201D1052545
:100F50000AE0254DA84201D1062505E0234DA8420F
:100F600001D1072500E00825BD402543C6F80858F3
:100F7000DBF800405D464E689C43F60300D51C43F9
:100F80002C60DEF8004075464E689C43B60300D5E1
:100F90001C432C600B4D08352C684E689C43F602B0
:100FA00000D51C432C60074D0C352C684E689C43C3
:100FB000B60200D51C432C60521C102AFFF44EAF21
:100FC000BDE8F88F003C0140443802400030014049
:100FD000000002400004024000080240000C0240F1
:100FE000001002400014024000180240001C0240A1
:100FF0000AB1816170470904FBE70000014880687D
:10100000704700007C00002002488168027811448B
:10101000816070477C0000200B4810B5016841F4E6
:1010200000710160016841F480610160016841F470
:1010300080710160032000F06FF8002000F006F8D6
:1010400000F024F8002010BD003C024070B50D4DAA
:1010500004464FF47A712878B1FBF0F00A49096828
:10106000B1FBF0F000F06EFF48B9102C07D200225F
:101070002146501E00F030F800206C6070BD012049
:1010800070BD00007C000020880000200A4808B5E0
:10109000016841F480410160006800F480400090E4
:1010A0000548001F016841F080510160006800F0B0
:1010B0008050009008BD000044380240002809DB41
:1010C00000F01F02012191404009800000F1E02062
:1010D000C0F8001170470000F0B40E4B1B680C46BE
:1010E000C3F30223C3F10705042D00D90425191DFC
:1010F000072901D2002300E0DB1E012606FA05F1D4
:10110000491E214099409E40761E16403143F0BC56
:1011100002F0CEBC0CED00E0064900F007020868C2
:101120004FF6FF03184040EA0220034A10430860CC
:10113000704700000CED00E00000FA057047006801
:10114000416200207047F0B50368586A39B19C6A63
:101150004FF4827600EB144400204D1E0AE040EA72
:10116000024098620FE006EB8007DF59401C04EB59
:101170001744C0B2A842F6D344EA02404FF480724A
:1011800002EB810158500020F0BDD0F8040401F0BA
:10119000CEBCC1EBC10200EB8202D0F80404926C19
:1011A00001F021BCC1EBC10200EB8202D0F80404C3
:1011B000D2F8082201F07ABCD0F8040401F0B9BCDE
:1011C00070B504460B0601F00F00C0EBC00104EB44
:1011D00081014FF001024FF0000503D581F83D2059
:1011E0003C3103E081F8FD5101F5FE71087094F87F
:1011F000BC03012808D084F8BC23206802F010F852
:1012000084F8BC53002070BD022070BD70B5044648
:1012100001F00F006268904201D9012070BD0B06F9
:1012200001F00F01C1EBC10104EB81014FF001029C
:101230004FF0000503D581F83D203C3103E081F8F3
:10124000FD5101F5FE718D70087094F8BC03012802
:1012500008D084F8BC23206802F0B8F984F8BC53A5
:10126000002070BD022070BD01F00F01C1EBC10173
:1012700000EB8100D0F8140270472DE9F0410446DC
:101280000F0601F00F00C0EBC00104EB81014FF02D
:1012900001064FF0000503D581F83D603C3103E0C5
:1012A00081F8FD5101F5FE7108708A60CB704A78B3
:1012B00002B1C880022B00D10D7194F8BC03012843
:1012C00009D084F8BC63206801F0FAFE284684F84F
:1012D000BC53BDE8F0810220FBE770B50C4601F07D
:1012E0000F05C5EBC50100EB8101C1F81032C1F853
:1012F00008220023C1F8143281F8FD3181F8FC5135
:10130000036901F5FE71012B00D10A612207027CFD
:10131000006803D002F0B2F9002070BD02F0A4F81A
:10132000FAE770B504460D4601F00F006168884287
:1013300001D9012070BD29064FF000064FF00102CF
:1013400007D5C0EBC00104EB810181F83D203C31A1
:1013500007E0C5EBC50104EB810181F8FD6101F5F2
:10136000FE718A70087094F8BC03012807D084F8D5
:10137000BC23206802F056F9280702D007E00220BB
:1013800070BD217C04F57172206802F0F3F884F8D6
:10139000BC63002070BD70B50C4601F00F05C5EBB5
:1013A000C50100EB81010B658A6400234B650123B5
:1013B00081F83D3001F83C5F0369012B00D10A61DF
:1013C0002207027C006803D002F058F9002070BDAB
:1013D00002F04AF8FAE700002DE9FC5F04460068D5
:1013E000002681464D4602F062FA00287ED1206830
:1013F00002F089FA002879D0206802F084FA800788
:1014000004D52068416901F002014161206802F0C1
:101410007AFA010304F571704FF0010B009076D554
:10142000206802F04FFA0746DFF810A46DE0F807D5
:1014300069D0F1B2206802F05EFA8046C00707D09A
:1014400005EB4611C1F808BB3146204600F098FE76
:101450005FEA087033D52068016C00EB46100191FB
:10146000D0F8081B2269012A019A0FD0F44B9A4246
:1014700014D1090403D54FF40041C0F8081B2046DD
:1014800000F0C4FA206901280FD013E0524505D9B5
:10149000090403D54FF40041C0F8081B204600F0B2
:1014A000B5FA01985045EDD804E020680121009A72
:1014B00002F060F805EB46110820C1F8080B5FEA5E
:1014C000C86004D505EB46111020C1F8080B5FEA8F
:1014D00088600FD52069012804D120680121009A75
:1014E00002F048F8202005EB461101E0A4E10EE0EF
:1014F000C1F8080B5FEA884005D505EB46114FF4AB
:101500000050C1F8080B7F08761C002F8FD120688F
:1015100002F0F9F940034FF0000A60D5206802F0AC
:10152000CAF90746002658E0F80754D0F1B22068FF
:1015300002F0CFF98046C00726D006F00F020BFA62
:1015400002F0D5F834288243C5F8342805EB46105C
:10155000C0F808B92069012807D1C6EBC60004EB22
:101560008000D0E9112111448164F1B22046FFF7D7
:1015700010FE2069012807D136B9206D20B92068F6
:101580000121009A01F0F6FF5FEA087004D505EB2F
:1015900046110820C1F808095FEAC86004D505EBC8
:1015A00046111020C1F808095FEA486004D505EB30
:1015B00046114020C1F808095FEA887004D505EBA0
:1015C00046110220C1F808095FEA086003D53146D8
:1015D000204600F043FE7F08761C002FA4D120682F
:1015E00002F091F9002811DAD5F8040820F0010082
:1015F000C5F8040894F8F40301282BD0204600F025
:10160000E9F92068416901F000414161206802F078
:101610007AF900050BD5D5F80808C00702D0204696
:1016200000F01CFA2068416901F400614161206802
:1016300002F069F9C0045DD5D5F8040820F0010076
:10164000C5F804081021206802F012F900214FF6B5
:101650007F321AE084F8F4A300212046FFF76EFDE4
:10166000CFE700BF05EB4110C0F80829D0F80039DA
:1016700023F40013C0F80039C0F8082BD0F8003B61
:1016800023F40013C0F8003B491C60688842E9D885
:10169000D5F81C0840F00110C5F81C08206B60B19B
:1016A000D5F8840840F00B00C5F88408D5F8440844
:1016B00040F00B00C5F844080CE0D5F8140842F2DD
:1016C0002B010843C5F81408D5F8100840F00B00AA
:1016D000C5F81008D5F8000820F4FE60C5F8000829
:1016E000217C2068009A01F045FF2068416901F4DF
:1016F00080514161206802F006F9800418D5206805
:1017000001F01EFD206802F0C5F860B30320E06020
:1017100000F054FA23680146227B184602F02EF9A5
:10172000204600F041F92068416901F4005141610F
:10173000206802F0E8F8C00638D52068816921F0F9
:1017400010018161D9F8207007F00F00C0EBC000D4
:1017500004EB8005C7F3434005F5FE75022805D06C
:10176000062814D01DE0C4F80CA0D1E747F6F071AC
:101770000F4216D0C7F30A1217464846E96802F02E
:10178000C6F8E8683844E860A869384408E00822E8
:101790004846009902F0BBF8A869C7F30A1108444B
:1017A000A8612068816941F010018161206802F020
:1017B000AAF8000707D5204600F010F92068416913
:1017C00001F008014161206802F09DF8C00208D5CF
:1017D000F1B2204600F036F82068416901F480112A
:1017E0004161206802F08FF8800208D5F1B22046EE
:1017F00000F02CF82068416901F400114161206873
:1018000002F081F8400007D52046FFF7BEFC2068B3
:10181000416901F080414161206802F074F840079D
:101820000AD520684568680702D52046FFF7C4FC42
:101830002068416829434160BDE8FC9F0A30544F4D
:101840000A31544FD0F8040401F0C2B9D0F80404AE
:1018500001F0C0B92DE9F0418AB0040004D094F839
:10186000BD03002520B108E001200AB0BDE8F081E9
:1018700084F8BC53204600F05BF8032084F8BD03D5
:10188000206801F0EBFD04F110012822884668462B
:10189000FEF7C7FC94E80F0001F06CFC0226D0BBF9
:1018A0000021206802F041F8002001270FE000BF6E
:1018B000C0EBC00104EB810181F83D7001F83C0FE1
:1018C000C880CD708D60CD60401CC0B24D61616834
:1018D0008142EDD8002011E0C0EBC00104EB810192
:1018E00081F8FD5181F8FC0181F8FF51C1F80452E3
:1018F000C1F80852401CC0B2C1F810526168814260
:10190000EAD8282241466846FEF78BFC94E80F008F
:1019100001F0DEFC10B184F8BD63A5E784F838500F
:1019200084F8BD73206801F0C7FC00209DE700002B
:1019300000B5006887B0B0F1A04F2FD11848002142
:10194000026842F001020260006800F001000590A8
:101950004FF4C05000900220CDE901010320039014
:101960000A20049069460F48FFF76AFA0C48001DE8
:10197000016841F08001016009481430016841F4B8
:10198000804101600068002200F48040059011460B
:101990004320FFF7A1FB4320FFF790FB07B000BDFA
:1019A000303802400000024070B50446C06801258E
:1019B00070B1022801D0FEF73DFE2946D4F8040498
:1019C00001F059F9D4F80404BDE8704001F019B9E8
:1019D0000025F2E7D0F8040401F03BB9D0F8040484
:1019E00001F03DB910B5044690F8BC0301280BD0B6
:1019F000012084F8BC0384F83810206801F0ACFFA3
:101A0000002084F8BC0310BD022010BDD0F80424CF
:101A100000F57171104601F03AB910B5044600683E
:101A200094F8BC13012906D0012184F8BC13A16AE3
:101A3000012902D008E0022010BDA169012903D0CC
:101A4000816B41F480318163206801F029FC2068BA
:101A500001F0F8FE002084F8BC0310BD10B5044668
:101A6000D0F8040401F052F92068D0F8001E41F0CB
:101A70000101C0F8001E206A002804D00248016855
:101A800041F00601016010BD10ED00E02DE9F047C6
:101A90000E46050065D0DFF81481D8F80000F7B2D3
:101AA00000F00F00B04207D288F80070D8F80000AC
:101AB00000F00F00B04254D128683D4C810712D588
:101AC000400703D5206840F4E050206028780007E4
:101AD00003D5206840F4604020602068A96820F0A9
:101AE000F000084320602878C0072DD0304968688E
:101AF0000839012812D0022813D0032811D0096810
:101B0000890700292DDA216821F0030101432160B2
:101B1000FFF774FA814641F2883A0EE009688903BA
:101B2000EFE709688901ECE7FFF768FAA0EB090124
:101B3000514502D90320BDE8F0872068696800F0AC
:101B40000C00B0EB810FEFD1D8F80010404601F047
:101B50000F01B14207D90770006800F00F00B042D2
:101B600001D00120E7E72878400705D52068E9681B
:101B700020F4E050084320602878000706D520684C
:101B8000296920F4604040EAC100206000F01CF8A0
:101B90002168084AC1F30311515CC8400649086036
:101BA0000020FFF753FA0020C5E70000003C024088
:101BB00008380240A03D0008880000200148006865
:101BC0007047000088000020154810B5006810F02C
:101BD0000C02144813D04110042A0FD0082A0ED149
:101BE0000F4C241F2268236802F03F025B0207D5D6
:101BF0002068C0F38810A0FB010106E0084610BD74
:101C00002168C1F38811A1FB00010023FEF7D8FA77
:101C10002168C1F30141491C4900B0FBF1F010BD3E
:101C2000083802400024F4002DE9F84F050076D072
:101C30002878DFF8F8B2BE4CC00749D0DBF80010B6
:101C40005846C1F38101012908D00068C0F3810022
:101C500002280AD1201D0068400206D520688003B2
:101C600036D568680028E2D032E06868B0F5803F79
:101C700010D0B0F5A02F206810D020F48030206064
:101C8000206820F4802020606868A0B1FFF7B6F9D2
:101C900006460CE0206840F48030F4E740F48020F1
:101CA0002060F7E7FFF7AAF9801B642873D8206843
:101CB0008003F7D50CE0FFF7A1F9064605E000BF69
:101CC000FFF79CF9801B6428F0D820688003F7D4C4
:101CD0002878DFF8608280074FF000093ED5DBF8F6
:101CE0000010584611F00C0F09D00068C0F38100B5
:101CF00002280BD18D48001F0068400206D42068DE
:101D0000800715D5E868012809D111E0E868B8B165
:101D10000120C8F80000FFF771F9064605E002E16E
:101D2000FFF76CF9801B0228C0D820688007F7D520
:101D30002068296920F0F80040EAC10020600DE029
:101D4000C8F80090FFF75AF9064604E0FFF756F985
:101D5000801B02281FD820688007F7D42878000746
:101D600022D5724E744869696C3671B101210160E7
:101D7000FFF744F9074604E0FFF740F9C01B0228CB
:101D800009D830688007F7D50EE0C0F80090FFF75B
:101D900035F9074605E083E0FFF730F9C01B02285C
:101DA0007ED830688007F7D42878400768D5DFF8F8
:101DB0007CA100270AF1380ADAF80000C0000BD431
:101DC000DAF8001041F08051CAF80010DAF800008B
:101DD000012700F080500090584E3068C00510D4A4
:101DE000306840F480703060FFF708F9009005E03B
:101DF000FFF704F90099401A022851D83068C0054D
:101E0000F6D54A4EA868683601280FD005283068F4
:101E100010D020F001003060306820F00400306005
:101E2000A868B8B1FFF7EAF800900FE0306840F01A
:101E30000100F4E740F004003060F7E7FFF7DEF858
:101E40000099411A41F28830814264D83068800795
:101E5000F4D50EE0FFF7D2F8009007E0FFF7CEF8D8
:101E60000099411A41F28830814254D83068800785
:101E7000F4D42FB1DAF8001021F08051CAF8001024
:101E8000A869C0B3DBF80010C1F3810102294AD070
:101E90000228484607D0C8F86000FFF7AFF800E016
:101EA00039E005463AE04746C8F86000FFF7A6F873
:101EB000064604E0FFF7A2F8801B02282BD8206812
:101EC0008001F7D4D5E907010843A96A1C4A4908EB
:101ED00002EB01416A6A41EA8211084395F82C102D
:101EE00040EA01611148001F016001203866FFF7D8
:101EF00085F8054605E014E0FFF780F8401B02284E
:101F000009D820688001F7D50BE000BFFFF776F80D
:101F1000401B022802D90320BDE8F88F2068800109
:101F2000F4D40020F8E70120F6E70000083802406A
:101F30000038024000004742800E474200700040D7
:101F40000000FFFF10B5401EB0F1807F01D30120DB
:101F500010BD4FF0E02460610F21601701F0A8FD73
:101F60000020A06107202061002010BDFEE70000D6
:101F7000F0B500230A24302537261F4611E000BFA4
:101F8000B4EB107F02D905EB107C01E006EB107C6E
:101F900001F813C001EB430C00015B1C8CF80170CD
:101FA000DBB29342ECD3F0BD7FB50024144800941B
:101FB0000194029411490394C0E9001401250561BC
:101FC0008460047680F820400E49C0E90A14022695
:101FD000C661C46080F830404561FEF7D6FB06203C
:101FE000CDE90005694602940548FEF725FBCDE9D9
:101FF000005669460248FEF71FFB7FBD00200140E6
:10200000A80100200100000F7FB5002414480094AF
:102010000194029411490394C0E90014012505615B
:102020008460047680F820400E49C0E90A14022634
:10203000C661C46080F830404561FEF7A6FB00969B
:10204000CDE9015469460648FEF7F6FA0320CDE9CA
:10205000000669460248FEF7EFFA7FBD0021014005
:10206000F00100200100000F70B586B01421684611
:10207000FEF7F0F826480024016841F08001016075
:10208000016801F080010591016841F001010160E2
:10209000016801F001010591016841F00201016050
:1020A000016801F002010591016841F0040101603D
:1020B000016801F004010591016841F00801016027
:1020C0000068144E00F008004FF47045059000229F
:1020D00029463046FEF78CFF00950125CDE90154D5
:1020E000694630460394FEF7ABFE0B480095CDE9F8
:1020F000010469463046FEF7A3FE00221146062081
:10210000FEF7EAFF0620FEF7D9FF06B070BD00001B
:1021100030380240000C02400000111010B50022BF
:102120000F49104800F038FC08B1FEF783FA0E4959
:102130000C4800F011FE08B1FEF77CFA0B49094883
:1021400000F036FA08B1FEF775FA064800F05AFEBC
:10215000002803D0BDE81040FEF76CBA10BD0000A7
:1021600018000020180300206801002068000020EB
:10217000FEE770470148FFF72FB90000B4050020C3
:102180002DE9F041044600680E46016C00EB46154F
:10219000D5F8080B276920234FF40042012F08D0FF
:1021A0002C4FB9424FD1010449D500BFC5F8082BC7
:1021B0004DE0DFF8A4C05FEA007E04F5717711D529
:1021C000614503D9000401D5C5F8082B2046FFF767
:1021D0001DFC3A460121206801F0CCF90820C5F821
:1021E000080B34E05FEA806E02D5C5F8083B2EE0AC
:1021F00010F0280F2BD1614501D90004D6D4C6EBCD
:10220000C60004EB8000D5F8102BD0F80412C2F3FE
:1022100012028A1AC0F81422D0F808221144C0F819
:102220000812F1B22046FEF7BDFF86B9D4F81002BD
:1022300068B93A460121206801F09CF907E0800660
:1022400001D5C5F8083BF1B22046FEF7ABFF0020F0
:10225000BDE8F0810A31544F0A30544F2DE9F84F50
:102260000E46C1EBC60100EB810481460568D4E946
:1022700014103C34884202D90120BDE8F88F081AB6
:10228000A168814200D20846C01C870805EB4618A9
:102290001BE000BFA0EB010AA068504500D28246B7
:1022A0000AF10300870899F8100000901FFA8AF3DA
:1022B000F2B22846E16801F0D5FBE16801EB0A00C3
:1022C000E060A16901EB0A00A061D8F8180980B2AA
:1022D000B84205D3D4E90501814201D20028D9D101
:1022E000D4E90501884208D806F00F010120884092
:1022F000D5F834188143C5F834180020BDE770477D
:102300007047FEF781BE000010B592B030216846DC
:10231000FDF7A0FF14210CA8FDF79CFF1A4800242C
:10232000016841F080510160006800F08050119018
:102330001648016841F48041016000684FF4803123
:1023400000F4804011900320CDE9000101210391A8
:102350001021049102214A05CDE906120422CDE99B
:102360000A100892482209926846FFF75DFC0F2088
:10237000CDE90C040E940F9400210CA81094FFF7E3
:1023800085FB12B010BD00004038024000700040D4
:102390001048016841F4700101600F48016841F084
:1023A000010101600C4A00210832116002680B4BE8
:1023B0001A400260031D0A4A1A60026822F4802251
:1023C000026005480C3001600249580680390860F7
:1023D0007047000088ED00E000380240FFFFF6FE85
:1023E000103000242DE9F041D0F89832D0F8902236
:1023F000DAB101EB810400EB84040025E6694EB1FB
:10240000C1EBC10703EB87035B6CB6FBF3F703FB80
:10241000176323B1C2F814510020BDE8F0810023F6
:102420001A46E56100F07BFCF6E70220F5E770B59F
:102430000546D0F8904200F087FBC4F80C01D5F8AF
:10244000900248B1D5F89412D4F80401CA6804F592
:1024500086719047002070BD022070BD70B50446A3
:102460000026812100F0B6FA002501212046E56210
:1024700000F0B0FA82212046C4F8585100F0AAFAC0
:102480002564D4F8900248B1D4F8940204F5247479
:1024900040688047206801F085FB2560304670BDAC
:1024A00010B5D0E9A44159B194F80001FF2807D034
:1024B0008B6894F8012121469847FF2084F8000199
:1024C000002010BD0A2101800048704790000020C4
:1024D0004321018000487047E00000204321018033
:1024E000004870479C00002043210180004870474D
:1024F000240100202DE9F04104460026007C4FF421
:102500008077012590B3402302228121204600F0EC
:1025100063FB4023E56202220121204600F05CFBC0
:102520000823032282212046C4F8585100F054FBAE
:102530004FF48E70256401F0F9FBC4F89002F8B1F5
:102540000546D4F89402006880470020C5F81401BD
:10255000C5F81801207CD5F8042198B14023012149
:10256000204600F045FB3046BDE8F081FFE73B46E2
:1025700002228121204600F02FFB3B46E562CAE79C
:102580000126F0E73B46EAE710B5D0F8901269B1B2
:10259000027C002AD1F8042105D04023012100F05B
:1025A00027FB002010BD4FF48073F7E7022010BD19
:1025B00002460220002902D00020C2F8941270477F
:1025C000D0F89002C0F8041100207047D0F89002B3
:1025D000C0F81021C0F80811002070472DE9FC4117
:1025E0000546D0F8907200208DF80000ADF8040088
:1025F000064608780C4610F0600121D020293BD116
:10260000E288AAB10006607807D5D5F894128B68E5
:1026100039469847E288394626E087F80001A079D4
:1026200087F80101E2883946284600F06AF828E078
:10263000D5F89412607800228B682146984720E0F4
:10264000607820B10A2809D00B2815D110E095F840
:102650007402032810D1022201A905E095F8740242
:10266000032809D101226946284600F064F808E0F1
:1026700095F87402032804D02146284600F036F865
:1026800002263046BDE8FC8110B5D0F89012A1B109
:10269000D1F814210AB1012010BD0122C1F8142182
:1026A000D1F810210263B1F8102193B2D1F80821BA
:1026B000812100F034FB002010BD022010BD10B5B8
:1026C000D0F88C2252689047002010BD134610B5F8
:1026D0000A46002100F08CFA002010BD134610B508
:1026E0000A46002100F01BFB002010BD10B5044677
:1026F000802100F0F9FA2046BDE81040002100F0EA
:10270000F3BA10B50323C0F84821C0F86C32C0F802
:102710004C2113460A46002100F06AFA002010BD41
:1027200010B505210023C0F86C121A46194600F0B6
:102730005FFA002010BD10B50223C261C0F86C32F0
:10274000026213460A46002100F0E9FA002010BD9B
:1027500010B504210023C0F86C121A46194600F087
:10276000DEFA002010BD000010B50A46024903A0A1
:1027700000F0E2F8004810BDBC09002043444320AB
:10278000436F6E666967000012200880004870473A
:102790003800002010B50A46024903A000F0CCF82A
:1027A000004810BDBC09002043444320496E7465B5
:1027B000726661636500000004200880004870476D
:1027C0003400002010B50A46024903A000F0B4F816
:1027D000004810BDBC09002053544D6963726F65F9
:1027E0006C656374726F6E696373000010B50A469E
:1027F000024903A000F0A0F8004810BDBC09002069
:1028000053544D3332205669727475616C20436F96
:102810006D506F727400000010B51A2008800A48CD
:102820000168001D0468001D0068081809D008220E
:102830000649FFF79DFB0549042210312046FFF7AA
:1028400097FB0248801E10BD107AFF1F4E0000202B
:10285000F8B5044648880D46010A08294BD2DFE83E
:1028600001F04A0409174A4A4048D4F88812207CEB
:102870000A6832E0207C02260028D4F88C0205D0B9
:10288000C16A684688470146467041E0816AF8E7B8
:10289000C0B206282FD2DFE800F003080D12171C83
:1028A000D4F88812207C4A6817E0D4F88812207C7B
:1028B0008A6812E0D4F88812207CCA680DE0D4F847
:1028C0008812207C0A6908E0D4F88812207C4A69C2
:1028D00003E0D4F88812207C8A6969469047014653
:1028E00016E0207C38B9D4F88C02416B68468847E2
:1028F000F5E7207C20B129462046FFF7F7FEF8BD1A
:10290000D4F88C02016B684688470146072048705E
:10291000BDF8000048B1EA8852B1824200D90246AF
:10292000ADF800202046FFF706FFE8880028E6D132
:102930002046FFF70DFFF8BD70B5002300281ED01C
:102940000446002502E06D1CEDB2641C2678002EC2
:10295000F9D1022404EB450414801278CA545B1C9C
:102960000322CA5400245B1C06E0CA545B1CDAB282
:102970008C54521CD3B2401C0278002AF5D170BD91
:1029800001004FF0000004D0012901D0022901D03C
:10299000022070470120704710B580B1D0F88C320A
:1029A00013B10023C0F88C3209B1C0F8881201219C
:1029B00080F87412027000F0CBF8002010BD0220E5
:1029C00010BD10B5D0F89802FEF720FCBDE810400D
:1029D000FFF7D6BF10B5D0F89802FEF7F1FBBDE8BF
:1029E0001040FFF7CDBF2DE9F0411746044651B125
:1029F000D4F88C0242691AB194F87402032851D0B9
:102A00000220BDE8F081D4F86C32002504F11400F6
:102A1000022B03D0042B3AD0C3B33CE0D0E90363CC
:102A20009E4207D9F11AC1608AB239462046FFF7A3
:102A300055FE12E08068B0FBF3F103FB110199B978
:102A4000984211D3D4F8701288420DD20022114658
:102A50002046FFF743FEC4F8705200231A46194679
:102A6000204600F0C5F816E0D4F88C02C16829B100
:102A700094F87402032801D120468847802120461B
:102A800000F032F92046FFF74BFE04E0FFE780211B
:102A9000204600F029F994F87802012804D184F83E
:102AA000785201E0204690470020AAE770B515460D
:102AB000044649B1D4F88C0282691AB194F87402C0
:102AC000032830D0022070BDD4F86C1204F5A07039
:102AD000032902D005291ED027E0D0E903218A422C
:102AE0000BD9531AC3600846834200D303469AB2F7
:102AF00029462046FFF7EAFD17E0D4F88C02016969
:102B000029B194F87402032801D120468847204651
:102B1000FFF71EFE09E000200146C4F86C022046C3
:102B200000F0E2F801E020469047002070BD002050
:102B3000704710B5012180F87412D0F88C22017909
:102B400052689047002010BDD0F89802FEF78CBB69
:102B500010B5017839BB15490222C1F80404C0F848
:102B600098124FF0A0400860042048600020C1E99E
:102B70000320C1E9062008624862C862086308466B
:102B8000FEF768FE08B1FDF755FD80210748FEF706
:102B9000D6FA402200210548FEF7D5FA802201210D
:102BA0000248FEF7D0FA002010BD0000B405002056
:102BB0000A0601F07F01D0F89802C1EBC10100EBD9
:102BC000810002D590F83E00704790F8FE017047F2
:102BD000002070470020704710B51C461346D0F8FF
:102BE00098022246FEF749FBBDE81040FFF7C8BE39
:102BF00010B5D0F89802FEF770FBBDE81040FFF763
:102C0000BFBE70B50022044640231146FFF7E4FF23
:102C100040260125C4F85061334600228021204619
:102C2000C4F84451FFF7D8FF6662A56184F8745276
:102C30000020C4F86C026060C4F87C02D4F89002F2
:102C400028B1D4F88C020021426820469047002029
:102C500070BD90F8751280F874120020704710B59E
:102C600090F87412032904D1D0F88C12C96901B10B
:102C70008847002010BD01740020704710B5D0F8BF
:102C80009802FEF7AFFEBDE81040FFF779BE70B5C1
:102C9000044600F52070054600F04AF80120C4F80B
:102CA0006C02B4F88602C4F8700294F8800210F046
:102CB0001F010AD001290DD0022910D000F0800197
:102CC000204600F011F8002070BD2946204600F093
:102CD0009EF8F8E72946204600F0CAF9F3E72946AE
:102CE000204600F01DF9EEE710B5D0F89802FEF787
:102CF00018FBBDE81040FFF743BE10B5D0F89802AE
:102D0000FEF78BFEBDE81040FFF73ABE90F8741254
:102D100080F87512042180F874120020704710B5F5
:102D2000D0F89802FEF737FBBDE81040FFF728BE49
:102D30000A7802704A7842708A78CB7802EB0322D4
:102D400042800A794B7902EB032282808A79C97921
:102D500002EB0121C18070470246002011B1C2F888
:102D60008C1270470220704710B5D0F88C220224D4
:102D70001AB11268904700B90024204610BD000027
:102D800070B50E461E4D897804462970012931D848
:102D900094F8740202280BD003280FD03146204645
:102DA000FFF7A4FC29782046BDE87040FFF787BCF8
:102DB000D9B10320616084F8740209E071B16068E0
:102DC000884212D0C1B22046FFF779FC29786160B1
:102DD0002046FFF7C9FF02280CD006E0022084F845
:102DE000740220466160FFF76AFC2046BDE870402F
:102DF000FFF7AEBC31462046BDE87040FFF776BC19
:102E00008C00002010B5FFF778FF002010BD2DE9E1
:102E1000F0410A78002612F0600208D0202A01D082
:102E2000402A70D1D0F88C22926890476DE04B78A0
:102E3000002201250A2B66D2DFE803F0405D6557CA
:102E4000650805652C29FFF703FD5EE004468888C8
:102E5000D8B9C888C8B94888802816D200F07F073A
:102E600094F87402032810D084F87672394620460C
:102E7000FFF704FF2046FFF76BFC1FB1022084F828
:102E8000740242E084F874523FE020463BE0FFF7D2
:102E900077FF3AE0CB88012B35D190F87432012BC3
:102EA00004D0022B02D0032B2DD104E0826001223A
:102EB00000F1080116E00122011D13E090F87422D0
:102EC000012A03D0022A01D0032A1CD1CA88022A6F
:102ED00019D1C560D0F87C1209B10321C16002226A
:102EE00000F10C01FFF727FC0FE0498801290CD104
:102EF000C0F87C5211E090F87432012B08D0022BFC
:102F000006D0032B04D0FFF7F1FB3046BDE8F0817B
:102F100049880129F9D1C0F87C22FFF719FCF4E7B0
:102F20002DE9F0410A46044610780027097910F08F
:102F300060030AD0202B01D0402B50D1D4F88C0252
:102F400011468368204698478FE0C0F3411001285E
:102F500006D05078D0B301282AD003283FD107E00B
:102F6000D4F88C02114683682046BDE8F04118472A
:102F700094F87402022802D0032872D10AE071B3D7
:102F800080296ED02046FFF7AFFE80212046FFF754
:102F9000ABFE6AE0508838B931B1802904D0D088BE
:102FA00010B92046FFF7A0FE2046FFF7D1FB5CE0FA
:102FB00094F874020228E2D0032852D1508898BBBA
:102FC0004806F1D02046FFF7FCFCEDE7FFE794F858
:102FD00074020026022803D0032842D112E040E008
:102FE00009B180293DD1080601F07F0000EB800087
:102FF00004EB800101D5143101E001F5A07102223A
:103000000E602AE0080601F00F0000EB800004EBE0
:1030100080000AD5806920B301F07F0000EB8000BA
:1030200004EB800514350BE01FE0D0F84401C0B17B
:1030300001F07F0000EB800004EB800505F5A07532
:1030400041B1802906D02046FFF7B2FD10B1012022
:10305000286000E02E60022229462046FFF76BFB25
:1030600003E011462046FFF741FB3846BDE8F081FA
:1030700070B5054608780C4610F0600003D0202893
:1030800001D0402816D195F87402012803D00228F7
:1030900001D003280ED1207901280BD8D5F88C0255
:1030A000826828469047E188014306D12846FFF709
:1030B0004FFB02E02846FFF719FB002070BD00001F
:1030C00070B50A78012302F00F054E78AB401B4C17
:1030D000D0F81C58012E17D045EA0343C0F81C381D
:1030E00000EB4210D0F8002B12040BD4D0F8002BC8
:1030F0000B89C978C3F30A031A4344EA81410A439E
:10310000C0F8002B002070BD9BB21D43C0F81C58B6
:1031100000EB4210D0F800391B04F3D4D0F800398A
:103120000D89C978C5F30A0589042B4341EA825108
:103130000B432343C0F80039E4E70000008000108F
:10314000D0F800196FF30A01C0F80019D0F8081878
:10315000C1F34101022905D1D0F8001941F0030162
:10316000C0F80019D0F8041841F48071C0F80418B0
:103170000020704770B5044606990A9E049D0D987C
:10318000012916D0E06840F04000E060204600F0E1
:103190002BF8A16B1EB321F48031A163012D07D15F
:1031A000A16841F00601A160A16841F02001A16081
:1031B00070BDA16B21F48031A163E168094A11401F
:1031C000E160E16821F44011E160012803D1E06889
:1031D00040F48010E060204600F006F8DEE741F49D
:1031E0008031DAE7BFFFBDFF01220C4902E0521C2B
:1031F0008A420BD80369002BF9DA026942F0010216
:103200000261012204E0521C8A4201D90320704766
:103210000369DB07F7D1002070470000400D030071
:1032200030B50B784D78012203F00F0402FA04F454
:10323000012DD0F83C5817D025EA0444C0F83C488A
:10324000D0F81C48097801F00F018A4024EA0241B5
:10325000C0F81C1800EB4310D0F8001B0E4A1140B8
:10326000C0F8001B002030BDA4B2A543C0F83C58F4
:10327000D0F81C48097801F00F018A4091B28C43C4
:10328000C0F81C4800EB4310D0F80019034A114065
:10329000C0F80019E6E700000078F3EF007833EC9F
:1032A00010B5D0F8041821F00201C0F8041803206A
:1032B000FDF7A6FD002010BD10B5D0F8041841F0B0
:1032C0000201C0F804180320FDF79AFD002010BD8C
:1032D0002DE9F04F0025DDE90BCB0E460446DDF865
:1032E0004090099F2846294604EB8002C2F8041149
:1032F000401C0F28F8D3B9F1000F204618D0006801
:1033000020F400122260A06B40F40022A263084661
:103310008846C4F8000ED4F800182046C4F80018F7
:10332000BCF1010F10D0D0F8001841F0030110E0FB
:10333000806B40F40012A263A06B20F40022A26311
:10334000A06B20F48022E1E7D0F800180BB141F027
:103350000101C0F80018102100F08AFA00B101251F
:10336000204600F075FA00B101254046C4F81088E7
:10337000C4F81488C4F81C8800214FF000634FF093
:1033800090484FF67F3A14E004EB4112D2F800C99E
:10339000BCF1000F06DA11B1C2F8008904E0C4F8EC
:1033A000003901E0C2F80009C2F81009C2F808A902
:1033B000491C8E42E8D8002115E000BF04EB411201
:1033C000D2F800CBBCF1000F06DA11B1C2F8008BC5
:1033D00004E0C4F8003B01E0C2F8000BC2F8100B97
:1033E000C2F808AB491C8E42E8D8D4F8101821F472
:1033F00080722146C4F81028012F08D1134AC1F861
:103400003028D1F83018124A1143C4F83018A0619E
:103410006FF0804060611FB9A06940F01000A061AA
:10342000A0690C490843A061BBF1000F03D0A0695B
:1034300040F00800A061B9F1010F03D1A06906496D
:103440000843A0612846BDE8F08F0000000180001D
:103450000300010000383C8004000040816821F036
:10346000010181600020704770B50D784E78404CA6
:10347000EBB200EB4313012E1FD0D3F8100B6FF308
:103480001200C3F8100BD3F8100B2040C3F8100B38
:10349000486908B188684861D3F8100B40F40020EF
:1034A000C3F8100BD3F8100B8C68C4F3120420433C
:1034B000C3F8100B012A4ED051E04E69002ED3F80C
:1034C000106932D06FF31206C3F81069D3F810698F
:1034D0002640C3F810694E698C68A64200D94C6139
:1034E000D3F8104944F40024C3F81049D3F8104924
:1034F0004E69C6F312063443C3F81049012A22D09C
:103500004A694AB1D0F83428097801F00F03012143
:1035100099400A43C0F8342800EB4510D0F8001950
:1035200041F00441C0F800191FE02640C3F81069BB
:10353000D3F8104944F40024C3F81049D3F81049D3
:103540006FF31204D8E709690029E5D000EB4512B2
:10355000C2F81419E0E7C86808B1C3F8140BD3F82F
:10356000000B40F00440C3F8000B002070BD0000C9
:10357000FFFF07E010B5036C134CA34203D9D0F84A
:10358000003B002B1EDB0023C0F8103BD0F8103BA3
:1035900043F40023C0F8103BD0F8103B43F018036D
:1035A000C0F8103BD0F8103B43F0C043C0F8103BCC
:1035B000012907D1C0F8142BD0F8001B41F080215D
:1035C000C0F8001B002010BD0A30544F4A780B7819
:1035D000012A00EB43100BD0D0F8002B22F400128C
:1035E000C0F8002BC978032914D0022912D017E0A3
:1035F000D0F8002922F40012C0F80029C978032964
:1036000001D002290CD1D0F8001941F08051C0F846
:10361000001905E0D0F8001B41F08051C0F8001BF4
:10362000002070470A784B78D1B200EB4110012B93
:1036300012D0D0F8001B002906DB2AB1D0F8001BFD
:1036400021F08041C0F8001BD0F8001B41F40011AC
:10365000C0F8001B00207047D0F80019002906DBD5
:103660002AB1D0F8001921F08041C0F80019D0F833
:10367000001941F40011C0F80019EBE7F8B50C7817
:103680004F786F4DE3B26FF0604600EB4313012FAC
:1036900026D0D3F8104B6FF31204C3F8104BD3F8B5
:1036A000104B2C40C3F8104B4C69002C6FD08D6828
:1036B0002C44641EB4FBF5F4D3F8105BA4B206EA04
:1036C000C4463543C3F8105BD3F8105B8E6866437D
:1036D000C6F312042543C3F8105B012A7ED096E09E
:1036E0004F691FB3D3F810796FF31207C3F810793D
:1036F000D3F810792F40C3F810794F698D682F44A3
:103700007F1EB7FBF5F506EAC545D3F810693543CA
:10371000C3F81059D3F810594E69C6F31206354351
:10372000C3F81059CD78012D10D01BE0D3F81069E3
:103730002E40C3F81069D3F8105945F40025C3F89A
:103740001059D3F810596FF3120509E0D3F8105946
:1037500025F0C045C3F81059D3F8105945F000556D
:10376000C3F81059012A13D0CB78012B18D04B691C
:103770002BB3D0F834380D7805F00F060125B5408D
:103780002B43C0F83438CB78012B09D017E02BE05D
:103790000B69002BF7D000EB4415C5F81439F2E79C
:1037A000D0F80838DB0500EB4413D3F8005902D4F5
:1037B00045F0005501E045F08055C3F8005900EB95
:1037C0004413D3F8004944F00444C3F80049CB78CB
:1037D000012B32D100928A8A93B200E013E00A787A
:1037E000C96800F03FF928E0D3F8104B8D68C5F3A5
:1037F00012052C43C3F8104BD3F8104B44F40024AB
:10380000C3F8104B69E7CA680AB1C3F8142BC9782A
:1038100001290CD1D0F80808C005D3F8000B02D458
:1038200040F0005001E040F08050C3F8000BD3F8A6
:10383000000B40F00440C3F8000B0020F8BD00006E
:10384000FFFF07E0816841F00101816000207047BF
:10385000002110220261054A491C914201D903202E
:1038600070470369DB06F7D400207047400D030062
:103870000022202343EA811101610549521C8A423A
:1038800001D90320704703699B06F7D400207047D5
:10389000400D0300D0F8080810F0060004D00228FC
:1038A00003D0062801D000207047032070474069EC
:1038B00000F001007047D0F81818D0F81C08084034
:1038C00080B27047D0F81818D0F81C080840000CD7
:1038D000704710B5D0F81038D0F8342801F00F0434
:1038E00000EB4110E24002F00102D0F8080943EA7F
:1038F000C212104010BD00EB4111D1F8081BD0F8E6
:103900001408084070474169806908407047D21C1C
:1039100010B59308002200F5805002E00468521CA4
:1039200010C19A42FAD3084610BD10B5C26822F001
:10393000C042C260012902D029B1012010BDC16876
:1039400041F0005102E0C16841F08041C160322085
:10395000FDF756FA002010BDD0F8002822F4FE62D0
:10396000C0F80028D0F800284FF4FE6303EA0111E4
:103970000A43C0F80028002070470000032A3ED107
:10398000264A274B0A449A4201D20F2138E0254AA1
:10399000254B0A449A4201D20E2131E0234A244B9E
:1039A0000A449A4201D20D212AE0224A224B0A44BB
:1039B0009A4201D20C2123E0204A214B0A449A4228
:1039C00001D20B211CE01F4A1F4B0A449A4201D22C
:1039D0000A2115E01D4A1E4B0A449A420FD31D4A84
:1039E0001D4B0A449A4201D2082109E01B4A1144A6
:1039F0001B4A914201D2072102E0062100E0092181
:103A0000C26822F47052C260C2684FF4705303EA75
:103A100081210A43C260002070470000405327FF05
:103A200000350C00401E1BFF40420F0000DC0BFF66
:103A3000804F1200808CF9FE20D6130060B6E5FEA0
:103A400060E3160000D3CEFE40771B00C05BB3FEE0
:103A5000C091210000CA91FE20753800E05459FE43
:103A6000E09C410010B5029C64B9DB1C9C0800EB93
:103A70000230002300F5805002E004C902605B1CA4
:103A8000A342FAD3002010BDFEE700000FB40846A1
:103A900010B5064A02A900F02AF8044602A900203F
:103AA00000F036F8204610BC5DF814FB113B00080E
:103AB0000907090E002804DB00F1E02080F800145B
:103AC000704700F00F0000F1E02080F8141D7047EF
:103AD00002E008C8121F08C1002AFAD170477047D7
:103AE000002001E001C1121F002AFBD170472DE91F
:103AF000F04116460F460446002503E03946B0471C
:103B0000641C6D1C20780028F8D12846BDE8F0819F
:103B10000A68531C0B601070704700001FB500222C
:103B2000009201920292039204004FF001024FF0C2
:103B3000020306D0012C06D0022C07D003280AD19C
:103B400006E0019200E00193154804E0019200E0D4
:103B50000193134848300C290FD2DFE801F00E061C
:103B6000080A0C121416181A1C1E009205E0009385
:103B700003E0032100E0042100916946FCF75CFDAD
:103B80001FBD0521F8E70621F6E70721F4E7082124
:103B9000F2E70921F0E70A21EEE70B21ECE700004C
:103BA000A801002010B5002821D0114B0022001FD1
:103BB000196803E0814203D80A4649680029F9D10F
:103BC00052B11368841A9C4204D1006818441060F2
:103BD000104602E0506000E0186039B102680B1A2C
:103BE000934203D10B681A4402604968416010BDDA
:103BF000A001002008B5FDF70FFAFEF785FBFEF7E0
:103C000033FA42484FF00009016841F48001016035
:103C100000684A4600F48000009049463820FDF7CD
:103C20005BFA3820FDF74AFA002211463A20FDF7E8
:103C300053FA3A20FDF742FAFEF7B6F9FEF7E4F937
:103C4000FEF76CFA32A13648FFF720FF354E364DAD
:103C50004FF47A7A06F1080740F23338A6F10804E7
:103C60005046FDF7CDF82F492D48022208399038EB
:103C7000FCF744FE2A489038FCF784FD2848903829
:103C8000FCF780FD26489038FCF7D0FE244802223D
:103C900024494838FCF732FE21484838FCF772FDC9
:103CA0001F484838FCF76EFD1D484838FCF7BEFE3B
:103CB0002168A288306801EB02413960B18800EBCD
:103CC00001407860174808210830FCF729FC21687A
:103CD000414501D2484617E0606840F2666188427B
:103CE00002D24FF480500FE040F69911884202D280
:103CF0004FF4405008E040F6CC41884202D24FF4E5
:103D0000E04001E04FF470402860A9E730380240FD
:103D10005553425F5472616E736D69740D0A0000F1
:103D20003802002008000020140C0240F0B50B30CF
:103D3000154D20F007010024144A0FE003688B4260
:103D40000BD38B4205D95E1A43184768C3E9006755
:103D500000E04368136002C004E0021D1068002800
:103D6000ECD12046002802D1286808B10020F0BD1F
:103D7000064A07481060074A121A22F00702C0E9F3
:103D8000002401202860D7E7A4010020A001002022
:103D9000440C0020400E00200006101600061016ED
:103DA00000000000000000000102030406070809EB
:103DB000D03D000800000020A8010000CC0200084F
:103DC000943E0008A801002098100000E03A000886
:103DD00001181389271B08B9041AC5041AED041326
:103DE00019281B0869081A9504170403090412010D
:103DF0001402020216408304405726020102030106
:103E0000031A1A0313E5041B08DF041ADB04130961
:103E10000533080619331182105324F4130A0632AD
:103E2000022A401C1C0902435B111DC03209042DEB
:103E30001A020B13052416100105240110090104B0
:103E4000240202052406170107058203081C100935
:103E50000491320A1D070501025A2C070581070942
:103E600038442A40072A8107112B0907440A3B04DA
:103E70004413F5241B085D0413DD2542081AA10C28
:103E800013E5231B082F08C11ADD101AD1041AE903
:043E9000049AC51CAF
:040000050800018965
:00000001FF
